:030000000221AE2C
:0C21AE00787FE4F6D8FD7581220221F54F
:1020840052203D20256620200D0A002564200D0ADB
:10209400000D0A3D3D3D3D3D3D3D3D3D3D3D3D3D0C
:1020A4003D3D3D3D3D3D3D3D3D3D3D3D3D3D3D3D5C
:1020B4003D3D3D3D3D0D0A00736B753A4B25642053
:1020C4000D0A00736F66742076657273696F6E3AD9
:1020D4002573200D0A00312E30302E303000676118
:1020E40070202564200D0A0074696D6572202564D2
:1020F400200D0A003D3D3D3D3D3D3D3D3D3D3D3DC9
:102104003D3D3D3D3D3D3D3D3D3D3D3D3D3D3D3DFB
:092114003D3D3D3D3D3D0D0A003D
:101DBA004200D500004100D7004100D4004100D3C1
:011DCA000018
:102A0D00758E5390FE917401F090FF027410F022B8
:101B2F00E4900000F09000D4E0700A12234E900071
:101B3F0000EFF08005E4900000F0900000E06401F9
:101B4F0070479000D2E07041122A67EF700D7F014D
:101B5F00122A6D122911E4FF02299CE4FF122A6D4B
:101B6F001222C49000D77401F09000BFE0FF12233F
:101B7F00CC9000BFE0FF12211D9000BFE0FF121AB2
:101B8F00329000C0E0FF02223A122A67EF60030290
:101B9F001C20900000E06402704F9000BFE0C394DF
:101BAF00095005E004F080069000BF7401F090002A
:101BBF00BFE0FFD394034016A3E0FE70059000BE74
:101BCF008009EED3940340069000AF7402F09000AA
:101BDF00D77401F01223CC9000BFE0FF12211D90AB
:101BEF0000BFE0FF121A328025900000E0B40321FD
:101BFF009000C0E0C394055005E004F08005E49028
:101C0F0000C0F09000C0E0FF12223A1222C4122846
:011C1F002A9A
:011C200022A1
:081CFF00900006EEF0A3EFF0E7
:101D0700900092E06402706A9000D2E06401706211
:101D1700900006A3E0FFE4900092F09000C304F067
:101D2700900073E0FED3940F4048EED39F400CE041
:101D37009F9000C1F0A37401F08016900073E0FE3D
:101D4700C3EF9EFF9000C1F0122A469000C27402B2
:101D5700F09000C1E0FFC394024006EFD394144013
:101D670007E49000C1F0A3F012282A7D027F021237
:101D770028D49000C2E0FDB401149000C1E0FF7EBA
:101D870000900006EE8FF0120763AFF0FE22EDB46D
:101D970002189000C1E0FFC3900007E09FFF90008A
:101DA70006E09400FEF0A3EFF022900006E0FEA309
:021DB700E0FF4B
:011DB9002207
:10127200900008ECF0A3EDF0900006EEF0FAA3EF78
:02128200F0FB7F
:10128400E490000AF0A3F0A3F0A37414F0A31208EE
:10129400F600000000C3EB9432EA9400401690007C
:1012A40008E0FEA3E0FF900006E0FCA3E0FDD39F6E
:1012B400EC9E400302134BE412023CE4FBFA797AFD
:1012C4007844120121C004C005C006C0079000087C
:1012D400E0FCA3E0FDE412023CE4FBFA797A7844F2
:1012E400120121D003D002D001D000120029C00481
:1012F400C005C006C007900006E0FCA3E0FDE412B0
:10130400023CE4FBFA797A7844120121E4FBFA798D
:10131400FF7843120121A804A905AA06AB07D00748
:10132400D006D005D00412012190000E1208EAE480
:10133400FFFEFDFC90000EE0F8A3E0F9A3E0FAA3A1
:10134400E0FB1201BE50057E007FFF227BFF7A2066
:10135400798490000EE0FCA3E0FDA3E0FEA3E0FF8F
:101364009000451208EA120A32E4FFFE7DE17C4354
:1013740090000EE0F8A3E0F9A3E0FAA3E0FB120169
:10138400BE5004E4FEFF22E4FFFE7DFA7C4390009D
:101394000EE0F8A3E0F9A3E0FAA3E0FB1201BE60BB
:1013A40050404EE4FFFE7DFA7CC390000EE0F8A3AB
:1013B400E0F9A3E0FAA3E0FB12002D1202759000FD
:1013C4000AEEF0A3EFF0FDAC06E412023C7BCD7A0A
:1013D400CC790C784012012112027590000AEEF0CB
:1013E400A3EFF090000DE02FF090000CE03EF080B1
:1013F4006690000EE0F8A3E0F9A3E0FAA3E0FBE4B2
:10140400FFFE7DFA7C4312002912027590000AEE59
:10141400F0A3EFF0FDAC06E412023C7BCD7ACC796C
:101424000C784012012112027590000AEEF0A3EF2D
:10143400F0D39414EE9400400990000AE4F0A374ED
:1014440014F090000AE0FEA3E0FFC390000DE09FBB
:0F145400F090000CE09EF090000CE0FEA3E0FF93
:011463002266
:10146400E4900000F0A3F0A3F0A3F0A3F0A3F090A5
:1014740000D6E004F070069000D5E004F0D39000AC
:10148400D6E094109000D5E0942750030215A6E40A
:10149400F0A3F07B0190000904F0A37400F0A3749E
:1014A40004F07A0079021216E6900002E0FEA3E04E
:1014B400FFA3E0FCA3E0FD121272900000EEF0A383
:1014C400EFF0121CFF900000EEF0A3EFF07BFF7A28
:1014D40020798F900045EEF0A3EFF0120A32D390FA
:1014E4000003E09432900002E0940050030215855A
:1014F400122A67EF705C9000D7E0B40129E4F0D3BE
:10150400900001E09432900000E094009000B274E6
:10151400024009F09000B97408F0800AF09000B31A
:1015240014F09000B9F0900000E0FEA3E0FF7C000E
:101534007D0A1206FC9000A9EEF0A3EFF0120E4A09
:101544009000C0E0FF12223A9000BFE0FF121A326E
:1015540080299000D2E0B40118E4FF12299C1229DA
:10156400119000BFE0FF121A329000DD7401F08088
:101574000AE4FF12299C7F04122966E49000D4F047
:1015840022E49000D2F09000DDF0122911E4FF1261
:10159400299C9000D374FFF0FF121A329000D47487
:0215A40001F054
:0115A6002222
:101FDF00122A0D1227B2122981D2AF12000E122926
:101FEF00CB1215A77FC87E001228721228037F20FC
:101FFF007E031229B47F02122A391228B4E4FF1289
:10200F00299C7BFF7A207995120A327BFF7A2079FF
:10201F00BC9000457423F0A3743AF0120A3290007A
:10202F004574FFF0A37420F0A374DAF07BFF7A20DD
:10203F0079C7120A327BFF7A2079E29000BFE0FF66
:10204F00900045E4F0A3EFF0120A327BFF7A20797B
:10205F00EC9000C0E0FF900045E4F0A3EFF0120A0F
:10206F00327BFF7A2079F8120A32121B2F12146476
:05207F00122A8380F528
:102675009000D8EEF0A3EFF0A3ECF0A3EDF0D39F1C
:10268500EC9E4004E4FF80229000B9E0FFC3900077
:10269500D9E09FFF9000D8E09400FEC39000DBE0F6
:0E26A5009F9000DAE09E50057F0A12299C22C9
:10211D00EFB40A0040030221AD90212DF828287359
:10212D0002214B02215602216102216C022177020C
:10213D00218202218D0221980221980221A3900073
:10214D00A77401F0A3742CF0229000A77401F0A3E2
:10215D0074AEF0229000A77401F0A374D6F0229013
:10216D0000A77401F0A374EAF0229000A77402F0A6
:10217D00A3741CF0229000A77402F0A37458F022EF
:10218D009000A77402F0A3748AF0229000A7740245
:10219D00F0A374BCF0229000A77402F0A374EEF0CB
:0121AD00220F
:102894009000AEE0B401189000BFE0D39403400F61
:1028A4007403F0FF121A3212282AE49000AEF022C8
:10192C000D0A3D3D3D3D3D3D3D3D3D3D3D3D3D3D3E
:10193C003D3D3D3D3D3D3D3D3D3D3D3D3D3D3D3DCB
:10194C003D3D3D3D3D3D3D3D3D3D0D0A00706F77BC
:10195C006572206F6E20666C617368206761703AE7
:10196C002564202074696D65723A2564200D0A0087
:10197C00706F776572206F6E20666C61736820766D
:10198C00616C75653A256420207369676E3A25642D
:10199C00200D0A003D3D3D3D3D3D3D3D3D3D3D3D28
:1019AC003D3D3D3D3D3D3D3D3D3D3D3D3D3D3D3D5B
:1019BC003D3D3D3D3D3D3D3D3D3D3D3D0D0A003DEB
:1019CC003D3D3D3D3D3D3D3D3D3D3D3D666972737B
:1019DC007420696E697420646174613D3D3D3D3DC8
:1019EC003D3D3D3D3D3D200D0A00307825303458BD
:1019FC002020307825303458202030782530345849
:101A0C002020307825303458200D0A00666C617324
:101A1C0068206761703A2564202074696D65723A9C
:061A2C002564200D0A00F4
:101DCB004500BF00000000004400C4202005014175
:031DDB0000C8013C
:062A67009000C8E0FF2210
:062A6D009000C8EFF0220A
:10285000D310AF01C3C0D075FDF075FC0F8EFA8F99
:10286000F975FDD275FC2D75FDE175FC1ED0D09279
:02287000AF2295
:1027DB00D310AF01C3C0D08FFB75FDF075FC0FAEEE
:1027EB0004AF058EFA8FF975FDB475FC4B75FDE1E1
:0827FB0075FC1ED0D092AF2244
:0C2441007B017A0079BF7D057F047E3CA2
:10244D00D310AF01C3C0D0900008EEF0A3EFF0A3FE
:0B245D00EDF0A3EBF0A3EAF0A3E9F020
:10246800E4A3F0C2AFF090000AE0FF90000EE0C3D2
:102478009F502C90000BE0FBA3E475F00112077944
:10248800A9F0FA1206A4FF900008E475F0011207FB
:1024980079ADF0FC1227DB90000EE004F080C7D283
:0124A800AF84
:0524A900D0D092AF222B
:040003008F828E83D7
:03000700E493FF80
:01000A0022D3
:1025B700900008EEF0A3EFF0A3EBF0A3EAF0A3E995
:1025C700F0AF051DEF6028900008E475F0011207D1
:1025D7007985F082F583E493FF90000AE0FBA3E49A
:1025E70075F001120779A9F0FAEF1206EA80D222F4
:10272600E4FDFCED2400FFE4343CFE12000374C417
:102736002DF582E43400F583E0B507030C80037FB2
:1027460000220DEDB404DCECC3940440037F0122A7
:022756007F0002
:01275800225E
:1015A700E4900000F090FE927404F0122726EF708A
:1015B7000790000004F0807C7BFF7A19792C120ACF
:1015C700327B017A0079BF7D057F047E3C1225B707
:1015D7007BFF7A1979599000BFE0FF900045E4F04E
:1015E700A3EFF09000C0E0FF900047E4F0A3EFF016
:1015F700120A327BFF7A19797C9000C1E0FF9000D4
:1016070045E4F0A3EFF09000C2E0FF900047E4F05C
:10161700A3EFF0120A327BFF7A1979A0120A3290EF
:1016270000BFE0D394095006A3E09405400690005C
:10163700007401F0900000E0640160030216C37BB0
:10164700FF7A1979CB120A329000BF7401F0A374A4
:1016570003F07F007E3C1228507B017A0079C47D1D
:101667000412244D1224417B017A0079C47D047F42
:10167700007E3C1225B77BFF7A1979F69000C4E00B
:10168700FF900045E4F0A3EFF09000C5E0FF900065
:1016970047E4F0A3EFF09000C6E0FF900049E4F0C4
:1016A700A3EFF09000C7E0FF90004BE4F0A3EFF04A
:1016B700120A327BFF7A1979A0120A327BFF7A1A53
:1016C70079189000BFE0FF900045E4F0A3EFF09099
:0F16D70000C0E0FF900047E4F0A3EFF0020A32FA
:10282A007F047E3C1228507B017A0079C47D047FA4
:10283A000012244D1224417B017A0079BF7D057F65
:06284A00047E3C0225B7EC
:0E2A1D00EF1F70011E144E6004000080F322B3
:1029B4007DA07C01ED1D70011C144C70F7EF1F709D
:0629C400011E144E70EA32
:0129CA0022EA
:032A8700022A1D03
:10294B0090FF0974C1F090FF08F090FF07F090FF23
:0B295B0006F0D291D290D287D28622E3
:0825F700900045EFF0A3EDF0A8
:1025FF00E4A3F0F0900046E0FFA3E0C39F5027C292
:10260F0087900045E020E704C2868002D286D287F9
:10261F007F057E00122A87900045E025E0F09000AC
:06262F0047E004F080CE3C
:012635002282
:08263600900045EFF0A3EDF068
:10263E00E4A3F0F0900046E0FFA3E0C39F5027C252
:10264E0087900045E020E004C2868002D286D287C1
:10265E007F057E00122A87900045E0C313F090009C
:06266E0047E004F080CEFD
:012674002243
:10296600900007EFF0C2917D047F801225F790005A
:0B29760007E0FF7D081225F7D2912238
:10278600900043EFF0A3EDF0C2917D037FA01225E8
:10279600F7900043E025E025E0FF7D061225F7903F
:0C27A6000044E0FF7D04122636D2912290
:092A5E00D291D290D287D28622D7
:081DDE004100DC004100DD00C2
:052A79007F0602296642
:052A7E007F040229663F
:1028F300E4900000F0F0900000E0FFC39420500D3E
:0D2903007D0F122786900000E004F080E9AF
:0129100022A4
:10291100E4900042F0F0900042E0FFC39420500D9B
:0D292100E4FD122786900042E004F080E9FA
:01292E002286
:1028030012294B7F521229667F301229667F0A12E2
:1028130029667F081229667F021229667F0612291C
:07282300661229110228F3DF
:0E2A2B00E4FD7F1C122786E4FD7F1F02278634
:10223A00900006EFF07F06122966E4FD7F1F122741
:10224A0086E4FD7F1C122786900006E014601B14AA
:10225A00602314602B14603A1460492405705A7D77
:10226A000A7F1B1227867D0E80317D0B7F1B12276A
:10227A00867D0A80267D0E7F1B1227867D0A801B9B
:10228A007D0A7F1B1227867D0A7F1C1227867D0BFB
:10229A0080227D0A7F1B1227867D0B7F1C122786D0
:1022AA007D0A80107D0A7F1B1227867D0A7F1C12F9
:0A22BA0027867D0E7F1F1227862263
:101A3200900006EFF07F06122966E4FD7F1D122753
:101A420086E4FD7F1E1227869000DDE06401700EA1
:101A52009000DCE070057D06021B09021B1C900051
:101A620006E0B401047D068063900006E0B4020B38
:101A72007D0B7F1D1227867D0C8065900006E0B4E9
:101A8200030B7D0F7F1D1227867D04805390000675
:101A9200E0B4040B7D067F1D1227867D06804190EF
:101AA2000006E0B4050B7D0D7F1D1227867D0680A2
:101AB2002F900006E0B4060B7D0D7F1D1227867D58
:101AC2000E801D900006E0B407067D077F1D805939
:101AD200900006E0B4080D7D0F7F1D1227867D0E53
:101AE2007F1E8045900006E0B4090D7D0F7F1D1218
:101AF20027867D067F1E8031900006E0F4702D90CF
:101B020000DCE070157D017F1D1227867D0E7F1E91
:101B12001227869000DC7401F022E49000DCF0FDD4
:0D1B22007F1C122786E4FD7F1F12278622FC
:101DE6005E0074000000000000000000000000001B
:101DF60000000000000000000000000000000000DD
:091E06000041009200410073004C
:1027B20090FF0E74C1F090FF0F7461F090FFA0744F
:1027C20016F090FFA104F075CEFF75CDE675CC062C
:0927D200759E02759810D2AC222C
:0C2A4600C2AC8F993099FDC299D2AC222D
:032A8A00022A46D7
:0B27590090000DEBF0A3EAF0A3E9F004
:10276400E4FEEEC39D501A90000DE0FBA3E0FAA333
:10277400E0F98E827583001206BDFF122A8A0E804C
:01278400E173
:012785002231
:1028D4009000087455F0A3EFF0A3EDF0A3740DF08D
:0F28E400A3740AF07B017A0079087D0502275959
:062A7300AE07122A462204
:0300230002256A49
:0D256A00C0E0C083C082C0D075D000C007A3
:10257700E59830E030AF995398FE900092E01460F0
:1025870019047021EFB4551D900074F0900072E0AB
:1025970004F09000927401F0800B900073EFF090BC
:0525A70000927402F037
:0B25AC00D007D0D0D082D083D0E03226
:101E0F004100D2004100C9004200CA00004100CC8D
:0F1E1F00004200CD00004100CF014200D0000082
:10000E0090FF1D7461F090FF15F090FF16F090FFB9
:03001E0002F022CB
:101E7100E4900002F0A2A533900001F09000C9E0C7
:101E810014602614604E147003021F1424036003AF
:101E9100021F1D900001E06003021F229000CAF0A2
:101EA100A3F09000C904F08078900001E0706B907D
:101EB10000CBE004F070069000CAE004F0C390008B
:101EC100CBE094039000CAE09400403E9000C974B6
:101ED10002F08036900001E0B40106A37404F080A2
:101EE1003B9000CBE004F070069000CAE004F0C320
:101EF1009000CBE094789000CAE09400400C9000F0
:101F0100027405F09000C97403F07F0A7E00122963
:101F1100B4800E900001E0B401078000E49000C994
:061F2100F0900002E0FF59
:011F27002297
:101F2800E4900002F0A2A633900001F09000CCE00B
:101F380014602614604E147003021FCB2403600340
:101F4800021FD4900001E06003021FD99000CDF079
:101F5800A3F09000CC04F08078900001E0706B90C2
:101F680000CEE004F070069000CDE004F0C39000CD
:101F7800CEE094039000CDE09400403E9000CC74F5
:101F880002F08036900001E0B40106A37404F080EA
:101F98003B9000CEE004F070069000CDE004F0C362
:101FA8009000CEE094F09000CDE09400400C9000BA
:101FB800027406F09000CC7403F07F0A7E001229A8
:101FC800B4800E900001E0B401078000E49000CCDA
:061FD800F0900002E0FFA2
:011FDE0022E0
:10234E00121E71BF05037F0122121F28BF06211224
:10235E002A67BF01149000C3E0700E9000D204F003
:10236E009000C3F012282A803CE49000D2F0803511
:10237E009000CFE0602330A60320B51D9000D2E080
:10238E0070177F32FE1229B4E49000CFF020A6031E
:10239E007F032220B50F7F022230A60930B50690AA
:1023AE0000CF7401F030A513D39000D1E0940190CA
:0D23BE0000D0E094004004E4F0A3F07F00A4
:0123CB0022EF
:101C21007365742074696D65207365636F6E643AC2
:101C310025640D0A0065786368616E67655F686594
:101C410061745F76616C7565200D0A0074696D655C
:101C5100207365636F6E643A2564200D0A0070720B
:101C61006F74656374200D0A0074696D65206F6679
:101C710066200D0A0074696D655F746F5F302E35E3
:101C810048202074696D655F7365633D2564200D8F
:101C91000A0074696D655F746F5F31482020746953
:101CA1006D655F7365633D2564200D0A0074696D80
:101CB100655F746F5F3248202074696D655F73657D
:101CC100633D2564200D0A0074696D655F746F5F63
:101CD1003448202074696D655F7365633D25642018
:101CE1000D0A0074696D655F746F5F384820207458
:0E1CF100696D655F7365633D2564200D0A0013
:101E2E004100B8004200B600004200BC0000410074
:101E3E00AE004100AF004100BE004100B9004100BC
:101E4E00B2004200B000004200B400004200AC00FC
:0A1E5E00004100B3004200BA00008A
:1026EF009000BBE004F070069000BAE004F0C390D5
:1026FF0000BBE09F9000BAE09E50047F0A8002E486
:10270F00FF12299C9000BAE07004A3E06464700685
:07271F009000BAF0A3F022C4
:10292F009000B6EEF0A3EFF0E4A3F07BFF7A1C79F2
:0C293F0021900045EEF0A3EFF0020A32F8
:1023CC00EFB40A00506E9023D9F82828730223F733
:1023DC0002240102240302240502240F0224190200
:1023EC00242302242D0224370224379000ACE4F07D
:1023FC00A3741EF022800280009000ACE4F0A37461
:10240C003CF0229000ACE4F0A3745AF0229000ACA3
:10241C00E4F0A37478F0229000ACE4F0A37496F08E
:10242C00229000ACE4F0A374B4F0229000ACE4F081
:05243C00A374F0F02282
:102518009000BFE0B40A005048902528F828287396
:1025280002254602254802254F022551022553025D
:10253800255502255C022563022563022563800078
:102548009000B97401F0228004800280009000B9E4
:102558007402F0229000B97405F0229000B9740852
:02256800F0225F
:1026B3009000B2E0B402349000B0E475F001120768
:1026C30063FEC39000ADE095F09000ACE09E501B1C
:1026D3007BFF7A1C7936120A32E49000B2F0900044
:0C26E300B0F0A3F09000B3F01225182214
:1022C400E49000B8F09000C0E0FF70089000B6F011
:1022D400A3F08052EFB4010C9000B67407F0A3048D
:1022E400F0E48042EFB4020D9000B6740EF0A374D3
:1022F40010F0E48031EFB4030D9000B6741CF0A329
:102304007420F0E48020EFB4040D9000B67438F02B
:10231400A37440F0E4800FEFB405179000B6747016
:10232400F0A37480F0E49000BCF0A3F09000B4F04B
:10233400A3F07BFF7A1C794D9000B6E0FFA3E090F8
:0A2344000045CFF0A3EFF0020A32CB
:1029CB00E490FE80F0F589758CF2758AFBC28DD28E
:0629DB00A9D28CD2AF224C
:03000B00021812C6
:10181200C0E0C0F0C083C082C0D075D000C000C09C
:1018220001C002C003C004C005C006C007122A6777
:10183200EF60030219119000B8E004F0E0C3946471
:1018420050030219061226B39000BEE0B4022D9096
:1018520000BDE004F070069000BCE004F0D39000FC
:10186200BDE094209000BCE0941C40109000BEE4C7
:10187200F09000BCF0A3F09000AE04F0D39000B75B
:10188200E094009000B6E094004048A3E024FFF00A
:101892009000B6E034FFF09000AFE0640270609018
:1018A20000BDE004F070069000BCE004F0D39000AC
:1018B200BDE094209000BCE0941C40439000AE74C4
:1018C20001F0A3E4F09000BCF0A3F07BFF7A1C7956
:1018D2005F80299000C0E060267F01122A6D90008F
:1018E200B6E4F0A3F09000BCF0A3F09000AFF0904B
:1018F20000BEF01229117BFF7A1C796A120A32901B
:1019020000B8E4F09000A5E0FEA3E0FF1226EFD0BD
:1019120007D006D005D004D003D002D001D000D029
:0A192200D0D082D083D0F0D0E032A4
:1024AE009000B4E475F001120763FEE5F08EF012B1
:1024BE00096D24D8070824E00E1024E81C2024F00F
:1024CE00384024F87080000025177BFF7A1C79763F
:1024DE00801E7BFF7A1C799380167BFF7A1C79AE67
:1024EE00800E7BFF7A1C79C980067BFF7A1C79E40B
:1024FE009000B6E0FFA3E0900045CFF0A3EFF012FE
:0A250E000A32E49000B4F0A3F022BA
:041E68004100DE0057
:10299C007E009000DEE0FD7C0012099AE47B64FA74
:0729AC00F9F81208398FDF72
:0129B3002201
:1028720090FF0074C1F0E490FF9CF0AC06AD077EBF
:102882007A7F1212070EEF149000DEF0F5DE75DD8E
:0228920097228B
:1029810090FF017401F090FF03F075B4807F147E15
:0B29910000122A1D90FE9B7449F022EA
:1029E100E4FFFE75B50143B440E5B430E5FB53B4F3
:0529F100DFAEB7AFB638
:0129F60022BE
:1029F700E4FFFE75B50343B440E5B430E5FB53B4DB
:052A0700DFAEB7AFB621
:012A0C0022A7
:0B16E600900006EBF0A3EAF0A3E9F08F
:1016F10090000C1208F600000000E4900010F0F0D9
:1017010090000CE0F8A3E0F9A3E0FAA3E0FB1229B2
:10171100E1E4FCFDEB2FFFEA3EFEED39FDEC38FC88
:1017210090000C1208EA900010E004F0E0C3940568
:1017310040CE90000CE0FCA3E0FDA3E0FEA3E0FF9F
:10174100E47B05FAF9F812083990000C1208EAE472
:101751007F887E13FDFC90000CE0F8A3E0F9A3E084
:10176100FAA3E0FB1207AEE4FB7A10F9F81208398C
:10177100900006E0FBA3E0FAA3E0F9EE8FF0120778
:101781008F90000C1208F600000000E4900010F0A9
:1017910090000CE0F8A3E0F9A3E0FAA3E0FB122922
:1017A100F7E4FCFDEB2FFFEA3EFEED39FDEC38FCE2
:1017B10090000C1208EA900010E004F0E0C39405D8
:1017C10040CE90000CE0FCA3E0FDA3E0FEA3E0FF0F
:1017D100E47B05FAF9F812083990000C1208EAE4E2
:1017E1007F887E13FDFC90000CE0F8A3E0F9A3E0F4
:1017F100FAA3E0FB1207AEE4FB7A10F9F8120839FC
:10180100900009E0FBA3E0FAA3E0F9EE8FF00207F4
:011811008F47
:0D2A390075BD17EF75F02BA490FEA0F022E4
:042A830043BD10221D
:0C2A520000000000000000000000000078
:041E6C004100AB0086
:1028B400E49000A9F0A3F09000A5F0A3F0A3F0A386
:1028C400F09000A404F09000A3F09000A204F02281
:100E4A0078067C007D017BFF7A2A79527E007F0C2E
:100E5A0012067E9000121208F6000000009000169A
:100E6A001208F6000000009000A9E0FEA3E0FF903F
:100E7A0000A7E0FCA3E0FDD39FEC9E500302126A98
:100E8A00ED9FFFEC9EFED3EF9464EE9400400302C4
:100E9A001260E4FCFD9000061208EAE49000A0F05B
:100EAA00900097E0FCA3E0FDA3E0FEA3E0FFA312FD
:100EBA0008EA900093E0FCA3E0FDA3E0FEA3E0FFB4
:100ECA00A31208EA900006E0FCA3E0FDA3E0FEA35B
:100EDA00E0FF9000931208EA900097E0FCA3E0FD7F
:100EEA00A3E0FEA3E0FF900093E0F8A3E0F9A3E0FB
:100EFA00FAA3E0FBD31208D94033900097E0F8A395
:100F0A00E0F9A3E0FAA3E0FB900093E0FCA3E0FD84
:100F1A00A3E0FEA3E09BFFEE9AFEED99FDEC98FCA0
:100F2A009000061208EAE490009FF0803190009346
:100F3A00E0F8A3E0F9A3E0FAA3E0FBA3E0FCA3E056
:100F4A00FDA3E0FEA3E0C39BFFEE9AFEED99FDEC44
:100F5A0098FC9000061208EA90009F7401F0E47F62
:100F6A0002FEFDFC900097E0F8A3E0F9A3E0FAA3E3
:100F7A00E0FB1207AE90000E1208EA90009BE0FC1C
:100F8A00A3E0FDA3E0FEA3E0FF900093E0F8A3E056
:100F9A00F9A3E0FAA3E02FFFEA3EFEE93DFDE83CB3
:100FAA00FC90000EE0F8A3E0F9A3E0FAA3E0FBC38B
:100FBA001208D9504B90009BE0FCA3E0FDA3E0FE91
:100FCA00A3E0FF900093E0F8A3E0F9A3E0FAA3E01E
:100FDA002FFFEA3EFEE93DFDE83CFC90000EE0F8FA
:100FEA00A3E0F9A3E0FAC3EF9BFFEE9AFEED99FDA9
:100FFA00EC98FC90000E1208EAE49000A1F0805DE3
:10100A0090000EE0FCA3E0FDA3E0FEA3E0FFC00415
:10101A00C005C006C00790009BE0FCA3E0FDA3E06A
:10102A00FEA3E0FF900093E0F8A3E0F9A3E0FAA39F
:10103A00E02FFBEA3EFAE93DF9E83CF8D007D00692
:10104A00D005D004C3EF9BFFEE9AFEED99FDEC9814
:10105A00FC90000E1208EA9000A17401F09000A220
:10106A00E0FFE4FCFDFE900006E0F8A3E0F9A3E04F
:10107A00FAA3E0FB1207AE9000061208EA9000A35A
:10108A00E0FFE4FCFDFE900093E0F8A3E0F9A3E0A2
:10109A00FAA3E0FB1207AE90000A1208EA9000A435
:1010AA00E0FFE4FCFDFE90000EE0F8A3E0F9A3E007
:1010BA00FAA3E0FB1207AE90000E1208EA90009F16
:1010CA00E0702D900012E0FCA3E0FDA3E0FEA3E097
:1010DA00FF900006E0F8A3E0F9A3E0FAA3E0FBEF33
:1010EA002BFFEE3AFEED39FDEC38FC900012802B16
:1010FA00900016E0FCA3E0FDA3E0FEA3E0FF900051
:10110A0006E0F8A3E0F9A3E0FAA3E0FBEF2BFFEE79
:10111A003AFEED39FDEC38FC9000161208EA900010
:10112A00A0E0702E900012E0FCA3E0FDA3E0FEA375
:10113A00E0FF900006E0F8A3E0F9A3E0FAA3E0FBE1
:10114A00EF2BFFEE3AFEED39FDEC38FC900012125F
:10115A0008EA9000A1E0702B900012E0FCA3E0FDE9
:10116A00A3E0FEA3E0FF90000EE0F8A3E0F9A3E0FD
:10117A00FAA3E0FBEF2BFFEE3AFEED39FDEC38FC6B
:10118A00A3802B900016E0FCA3E0FDA3E0FEA3E001
:10119A00FF90000EE0F8A3E0F9A3E0FAA3E0FBEF6A
:1011AA002BFFEE3AFEED39FDEC38FC9000161208E2
:1011BA00EA900012E0F8A3E0F9A3E0FAA3E0FB90BA
:1011CA0000A5E0FEA3E0FFE4FCFDEB2FFFEA3EFEF4
:1011DA00ED39FDEC38FC9000121208EA900016E096
:1011EA00FCA3E0FDA3E0FEA3E0FF900012E0F8A359
:1011FA00E0F9A3E0FAA3E0FBD31208D94062900019
:10120A0016E0F8A3E0F9A3E0FAA3E0FB900012E0ED
:10121A00FCA3E0FDA3E0FEA3E09BFFEE9AFEED999E
:10122A00FDEC98FC9000061208EAE47F64FEFDFCDF
:10123A00900006E0F8A3E0F9A3E0FAA3E0FBC312EA
:10124A0008D95012900006A3A3E0FFA3E09000A5DE
:10125A00CFF0A3EFF0229000A5E4F0A37464F0228B
:07126A00E49000A5F0A3F0E1
:01127100225A
:100026000202E1E86480F8E933E83360110460F025
:10003600ED33EC337009E8FCE9FDEAFEEBFF220440
:1000460060DED3EB9FEA9EE99DE8C2E78CF0C2F73B
:1000560095F0400CE8CCF8E9CDF9EACEFAEBCFFB07
:100066001202AC85D0F05804700320D5B3E80470B2
:10007600075002B2D50202EB92D5EC0460F7E4CC4D
:10008600C0E0C398F8603B94186008400DD0E0FBD0
:100096000202C3E4FBFAC9FC8028E830E406E4C99E
:1000A600FBE4CAFCE830E305E4C9CACBFCE8540724
:1000B6006010F8C3E913F9EA13FAEB13FBEC13FC2F
:1000C600D8F130F52FC3E49CFCEF9BFFEE9AFEEDD2
:1000D60099FDD0E0FBEF4E4D4C701222DB0302027D
:1000E600E8EC2CFCEF33FFEE33FEED33FDED30E7AD
:1000F600EB0202C3EF2BFFEE3AFEED39FDD0E0FB3B
:1001060050130BBB00030202EBED13FDEE13FEEFE3
:0801160013FFEC13FC0202C30D
:10011E000202EBEC5D046005E8590470030202E193
:10012E001202AC580460F6EC4860F2EC7004FDFE6E
:10013E00FF22C860DB2481C85009C39860025006B4
:10014E000202E89850CAF582E9294B4A7005AB8243
:10015E000202D775F0007C1A7880C3EF9BEE9AED01
:10016E0099400DC3EF9BFFEE9AFEED99FDE842F02C
:10017E00DC23ACF0D0E0FFD0E0FED0E0FDAB82207F
:10018E00E7101BEB60BAEC2CFCEF33FFEE33FEED09
:10019E0033FD0202C3E803F830E705C0F075F00046
:1001AE00EF2FFFEE33FEED33FD40B830E7C280AAED
:1001BE0074F8CC6480CCC86480C8F58204604FC3E8
:1001CE00EB9FF5F0EA9E42F0E99D42F0E89C45F087
:1001DE00603C501DE5825FFFE582D313CB5BCBF411
:1001EE002B5582FB50280ABA002409B9002008803A
:1001FE001DE5825BFBE582D313CF5FCFF4C3132FD4
:10020E005582FF50090EBE00050DBD00010CC3EB5B
:10021E009FF5F0EA9E42F0E99D42F0E89C45F060C1
:09022E0007CC4820E701B3EC22E3
:1002370075F020800E75F010800575F0087D007E42
:10024700007F003392D530D5031208CBEC33401032
:10025700EF33FFEE33FEED33FDEC33FCD5F0ED224B
:0E026700E5F0247EA2D513CC92E7CDCEFF2287
:10027500EDD2E7CD33EC3392D524814006E4FFFE81
:10028500FDFC22FCE4CFCECDCC24E0501174FF80E0
:10029500EDC3CC13CCCD13CDCE13CECF13CF04707D
:0702A500F030D5DE0208CBAA
:1009C700E50D2445F582E43400F583E0050D22901A
:1009D7000042301003900045E475F0011209270228
:1009E70006A42009E97F2ED2098018EF540F24901E
:1009F700D43440D4FF300D0BEF24BFB41A0050039A
:100A07002461FFE50E6002150E0511E51170020560
:100A17001030100E900042E475F001120927EF0222
:100A270006EA022A737403D2108003E4C210F50D9C
:100A370090004212093EE4F50EF510F511E50E603F
:100A4700077F20120A0A80F5750FFFC20AC209C282
:100A57000BC20CC20EC20FC2111209D6FF700D30A5
:100A670010057F00120A1BAF11AE1022B4255FC21A
:100A7700D5C20D1209D6FF24D0B40A00501A75F05A
:100A87000A780E30D50508B6FF0106C6A426F6205B
:100A9700D5047002D20C80D924CFB41A00EF5004C9
:100AA700C2E5D20D020D0DD20A80C6D20980C0D28E
:100AB7000B80BCD2D580BAD20E80B47F20120A0A2E
:100AC700200B077401B50E0040F11209C7FF120A87
:100AD7000A020A44D211D20F80951209C7FB1209E4
:100AE700C7FA1209C7F94A4B7006790B7A0E7BFFD2
:100AF700200B2EE50E602A7E008E8275830012067B
:100B0700BD60060EEE650F70F0C2D5EBC0E0EAC01F
:100B1700E0E9C0E0EE120D6ED0E0F9D0E0FAD0E0E7
:100B2700FB1206A4FF60AAEBC0E0EAC0E0E9C0E060
:100B3700120A0AD0E02401F9D0E03400FAD0E0FB31
:100B4700E50F0460DCD50FD98087D20B80A2120D88
:100B57005060F7E50F7001041202F6A90F600DE56A
:100B67000F600914F50F120DF8EF60F3EA30E70292
:100B7700F404C3995079EAF4250F0430E701E4043B
:100B8700F50F800D120D5060C1EA050F250F1202F7
:100B9700F6EA900071F030E701E4250F04D50F0461
:100BA700200E0114120D6EE4C0E0120DF8900071D2
:100BB700E0601320E70714F01209F2802204F0D056
:100BC700E014C0E07F001209F2E50F60071209E99F
:100BD700150F800B300E031209E9D0E0020A44D04A
:100BE700E00480C4120D50609EE50F041202F690D7
:100BF7000071EAF0E50F200E026001042404120DD3
:010C07006E7E
:100C080074FF04C0E0120DF81209F2E50F200E027D
:100C180060031209E9D0E0B50FE87F451209FC909E
:100C28000071E07F2B30E7047F2DF404C0E0120A46
:100C38000AD0E075F00A84C0F01209F3D0E0120976
:100C4800F3020A44791080027908C20FC2118008A1
:100C5800D2D5790A8004790AC2D5E50F047002F565
:100C68000FE4FAFDFEFF1209C7FC7B08200A1312E5
:100C780009C7FD7B1030090A1209C7FE1209C7FF10
:100C88007B20EC3382D592D55013C3E43009069FFC
:100C9800FFE49EFEE4200A039DFDE49CFCE4CBF8FF
:100CA800C20AEC700CCFCECDCCE824F8F870F380F3
:100CB80017C3EF33FFEE33FEED33FDEC33FCEB33BC
:100CC800FB994002FB0FD8E9EB300A05F8D0E0C4E5
:100CD80048B20AC0E00AEC4D4E4F78207B0070C243
:100CE800EAB50F0040BCC0E0120D70D0F0D0E02093
:100CF8000A04C4C0E0C4B20AC0F01209F3D0F0D5A7
:100D0800F0EB020A441209470AE1530C4C580AB2A4
:100D18004C0AAE420C504F0C58440C58490AC74371
:100D28000C5E550B8B460BEB450B55470E2B500AAB
:100D3800B62D0ABA2E0ADD2B0ABE230ADB200E14B2
:100D48002A0A764800000AD5E50FB4FF03750F0696
:100D58001209C7FC1209C7FD1209C7FE1209C7FF0D
:100D680090006A020333790AA2D5200C14300E09C8
:100D7800B910020404B9080104A2D5200F025001D9
:100D880004200B68920BB50E005034C0E07F203071
:100D98000C197F30A20B720F720E500F120DC7C2C2
:100DA8000BC20FC20EC2117F30800F300E03E9C094
:100DB800E0120A0A300E03D0E0F9D0E0B50ECC30CC
:100DC8000E177F30B9100C120A0A7F58300D077FB2
:100DD800788003B90803120A0A300B057F2D020A2E
:100DE8000A7F202011F87F2B200FF322920B80CF4F
:100DF8007F00B40700500B246AF582E43400F583C1
:100E0800E0FF22286E756C6C2900D20A1209C730DF
:100E18000AF8C20A780E30D50108F6020A762D5073
:100E28004349581209C72403B405004001E4900E51
:100E380026931209FB743A1209FBD20C750E0402B0
:020E48000C4C50
:1002AC00E9D2E7C933E833F892D5EDD2E7CD33EC98
:0702BC0033FC5002B2D52211
:1002C300EC30E7100FBF000C0EBE00080DBD00049C
:1002D3000BEB6014A2D5EB13FCED92E7FD2274FF48
:1002E300FCFDFEFF22E480F8A2D574FF13FC7D80A1
:0302F300E480EFB5
:1002F600F920E73624F950037907E4F42402FBE5F4
:1003060082158270021583DBF6E024FB501BE96040
:1003160014E4F0E582158270021583E004F0B40A55
:0D03260008E4F0D9EE7401F00A22C2D522DD
:10033300ED33EC3392D5FA602AB4FF33EDC2E77B99
:10034300FF60067A037958E4227A03796120D504A1
:100353007A03795C224E614E002B494E46002D49AB
:100363004E4600E47A08F0A3DAFC7B00740722C04F
:1003730083C082ECC0E0EDC0E0EEC0E0EFC0E0EA95
:1003830075F010A4CAABF075F04DA42BFBE435F067
:10039300FCEA2410FAEB34C5FBEC34D9FCEDC2E7DC
:1003A300FF75F056A4F42411C5F0F434C58FF0A4FE
:1003B3002AE5F03BE43CF020E71412056ED0E0FFA1
:1003C300D0E0FED0E0FDD0E0FC1201218014F40463
:1003D30012056ED0E0FFD0E0FED0E0FDD0E0FC12CD
:1003E3000438D082D083E0FAEDD2E7CD33EC332466
:1003F30082FBE4C3CF33CFCE33CECD33CD33DBF368
:100403007B0775F00A846004F0A31B0AE5F0F0A3F0
:100413008FF0740AA4FFACF08EF0740AA42CFEAC27
:10042300F050010C8DF0740AA42CFDE435F0F0A318
:05043300DBDE7407226E
:10043800EC4D6011E8497017ED33EC3304600DE4BE
:10044800FCFFFEFD22E933E8330470F80202E112F2
:1004580002AC58046009E4CC2481500628500902F3
:1004680002EB2840030202E8C0E0EB4A7044B9807E
:1004780006D0E0FB0202D7EF4E701CBD8008EBFFF0
:10048800EAFEE9FD80EBE98DF0A4FEE5F002052126
:10049800E9CDF9EAFEEBFFEF89F0A4FCE5F0CE899F
:1004A800F0A42EFFE435F0CD89F0A42DFEE435F05C
:1004B8008067EF4E7005BD80D780C3EF8BF0A4AC8A
:1004C800F0EE8BF0A42CFCE435F0F8EF8AF0A42CC5
:1004D800E5F038FCE433CB8DF0A42CFCE5F03BF8D8
:1004E800EE8AF0A42CFCE5F038F8E433CF89F0A4C8
:1004F8002CFCE5F038CF3400CE89F0A42FFFE5F0CE
:100508003EFEE433C98DF0A42EFEE5F039CD8AF025
:10051800A42FFFE5F03EFEE43DFD33D0E0FB50079D
:100528000BBB000F0202EBEC2CFCEF33FFEE33FEAB
:06053800ED33FD0202C3D9
:10053E003F8000004120000042C80000447A0000C5
:10054E00461C400047C35000497424004B18968047
:10055E004CBEBC205A0E1BCA6753C21C749DC5AE3E
:10056E00FB60065407601C232312059CEB54386075
:10057E0009120588120597120438ECF8EDF9EEFA17
:10058E00EFCB22EB12059780F1543803241C900513
:10059E003EFE93FC0EEE93FD0EEE930ECE93FF22D7
:1021BA00021FDFE493A3F8E493A34003F68001F23D
:1021CA0008DFF48029E493A3F85407240CC8C33326
:1021DA00C4540F4420C8834004F456800146F6DFF5
:1021EA00E4800B0102040810204080901DBAE47EAE
:1021FA00019360BCA3FF543F30E509541FFEE493EA
:10220A00A360010ECF54C025E060A840B8E493A3B0
:10221A00FAE493A3F8E493A3C8C582C8CAC583CADB
:10222A00F0A3C8C582C8CAC583CADFE9DEE780BE93
:011E70000071
:1005AE00E709F608DFFA8046E709F208DFFA803E2F
:1005BE0088828C83E709F0A3DFFA8032E309F6081C
:1005CE00DFFA8078E309F208DFFA807088828C8384
:1005DE00E309F0A3DFFA806489828A83E0A3F60838
:1005EE00DFFA805889828A83E0A3F208DFFA804C12
:1005FE0080D280FA80C680D4806980F280338010E9
:10060E0080A680EA809A80A880DA80E280CA803351
:10061E0089828A83ECFAE493A3C8C582C8CCC583C9
:10062E00CCF0A3C8C582C8CCC583CCDFE9DEE78099
:10063E000D89828A83E493A3F608DFF9ECFAA9F018
:10064E00EDFB2289828A83ECFAE0A3C8C582C8CC6E
:10065E00C583CCF0A3C8C582C8CCC583CCDFEADE87
:10066E00E880DB89828A83E493A3F208DFF980CCE9
:10067E0088F0EF60010E4E60C388F0ED2402B404E2
:10068E000050B9F582EB2402B4040050AF23234589
:06069E0082239005FE73AB
:1006A400BB010689828A83E0225002E722BBFE0254
:0906B400E32289828A83E4932287
:1006BD00BB010CE58229F582E5833AF583E02250F2
:1006CD0006E92582F8E622BBFE06E92582F8E2223C
:0D06DD00E58229F582E5833AF583E4932256
:1006EA00BB010689828A83F0225002F722BBFE01EF
:0206FA00F322E9
:1006FC00EF8DF0A4A8F0CF8CF0A428CE8DF0A42E12
:02070C00FE22CB
:10070E00BC000BBE0029EF8DF084FFADF022E4CCCF
:10071E00F875F008EF2FFFEE33FEEC33FCEE9DEC98
:10072E00984005FCEE9DFE0FD5F0E9E4CEFD22EDDE
:10073E00F8F5F0EE8420D21CFEADF075F008EF2F28
:10074E00FFED33FD4007985006D5F0F222C398FD19
:05075E000FD5F0EA22B6
:10076300C5F0F8A3E028F0C5F0F8E5821582700221
:060773001583E038F022BE
:10077900A3F8E0C5F025F0F0E58215827002158333
:06078900E0C838F0E82290
:10078F00BB010A89828A83F0E5F0A3F0225006F7B5
:0F079F0009A7F01922BBFE06F3E5F009F31922B2
:1007AE00E88FF0A4CC8BF0A42CFCE98EF0A42CFCEA
:1007BE008AF0EDA42CFCEA8EF0A4CDA8F08BF0A468
:1007CE002DCC3825F0FDE98FF0A42CCD35F0FCEBC7
:1007DE008EF0A4FEA9F0EB8FF0A4CFC5F02ECD398C
:0F07EE00FEE43CFCEAA42DCE35F0FDE43CFC22F9
:1007FD0075F008758200EF2FFFEE33FECD33CDCCB3
:10080D0033CCC58233C5829BED9AEC99E582984035
:10081D000CF582EE9BFEED9AFDEC99FC0FD5F0D612
:10082D00E4CEFBE4CDFAE4CCF9A88222B800C1B93C
:10083D000059BA002DEC8BF084CFCECDFCE5F0CB7A
:10084D00F97818EF2FFFEE33FEED33FDEC33FCEBB3
:10085D0033FB10D703994004EB99FB0FD8E5E4F96E
:10086D00FA227818EF2FFFEE33FEED33FDEC33FC5B
:10087D00C933C910D7059BE99A4007EC9BFCE99A4F
:10088D00F90FD8E0E4C9FAE4CCFB2275F010EF2F94
:10089D00FFEE33FEED33FDCC33CCC833C810D70794
:1008AD009BEC9AE899400AED9BFDEC9AFCE899F8CF
:0E08BD000FD5F0DAE4CDFBE4CCFAE4C8F92262
:0E08CB00C3E49FFFE49EFEE49DFDE49CFC223E
:1008D900EB9FF5F0EA9E42F0E99D42F0E89C45F075
:0108E90022EC
:0C08EA00ECF0A3EDF0A3EEF0A3EFF02281
:1008F600A8828583F0D083D08212090D12090D12C9
:10090600090D12090DE473E493A3C583C5F0C583ED
:10091600C8C582C8F0A3C583C5F0C583C8C582C84B
:0109260022AE
:10092700F8E0FBA3A3E0F925F0F0E5821582700259
:070937001583E0FA38F022FD
:09093E00EBF0A3EAF0A3E9F022BA
:10094700D083D082F8E4937012740193700DA3A33F
:1009570093F8740193F5828883E473740293686053
:06096700EFA3A3A380DF53
:10096D00D083D082F8E4937012740193700DA3A319
:10097D0093F8740193F5828883E473740293B5F050
:0D098D00067403936860E9A3A3A3A380D8B8
:10099A00EC8EF0A4CCC5F0CCCDF8EFA4CEC5F02DEA
:1009AA00FDE43CFCE8A42EC8C5F03DFDE43CFCEFA8
:0D09BA00A4FFE5F028FEE43DFDE43CFC2236
:00000001FF
