:03000000021C5C83
:0C1C5C00787FE4F6D8FD758122021CA3FD
:101B1200206B65795F7363616E0D0A00204B455936
:101B22005F325F505245530D0A002564200D0A00B2
:101B32000D0A3D3D3D3D3D3D3D3D3D3D3D3D3D3D36
:101B42003D3D3D3D3D3D3D3D3D3D3D3D3D3D3D3DC3
:101B52003D3D3D3D0D0A00736B753A4B2564200DEA
:101B62000A00736F66742076657273696F6E3A2528
:101B720073200D0A00312E30302E30300067617034
:101B8200202564200D0A0074696D65722025642089
:101B92000D0A003D3D3D3D3D3D3D3D3D3D3D3D3D13
:101BA2003D3D3D3D3D3D3D3D3D3D3D3D3D3D3D3D63
:081BB2003D3D3D3D3D0D0A00E3
:101A64004200AE00004100B0004100AD004100ACB6
:011A74000071
:10246800758E5390FE917401F090FF027410F02263
:1015B600E4900000F09000ADE0700A121DFC90006F
:1015C60000EFF08005E4900000F0900000E0640178
:1015D60070489000ABE070427BFF7A1B79121209CB
:1015E600191224B6EF700D7F011224BC12236CE48D
:1015F600FF0223F7E4FF1224BC121D729000B074A0
:1016060001F0900098E0FF121E7A900098E0FF1219
:1016160014B9900099E0FF021CE81224B6EF6003AB
:101626000216A9900000E0640270507BFF7A1B79D5
:101636001E120919900098E0C394095005E004F0C1
:1016460080069000987401F0900098E0FFD3940310
:101656004016A3E0FE70059000978009EED3940330
:10166600400690008A7402F09000B07401F0121ED9
:101676007A900098E0FF1214B98025900000E0B43B
:101686000321900099E0C394055005E004F080051D
:10169600E4900099F0900099E0FF121CE8121D7288
:0316A6001222A568
:0116A900221E
:08178800900006EEF0A3EFF063
:10179000900086E06402706A9000ABE064017062C1
:1017A000900006A3E0FFE4900086F090009C04F017
:1017B000900067E0FED3940F4048EED39F400CE0CA
:1017C0009F90009AF0A37401F08016900067E0FEED
:1017D000C3EF9EFF90009AF01224A190009B740228
:1017E000F090009AE0FFC394024006EFD3941440B7
:1017F00007E490009AF0A3F01222A57D027F021266
:10180000232F90009BE0FDB4011490009AE0FF7E2E
:1018100000900006EE8FF012065BAFF0FE22EDB4F2
:10182000021890009AE0FFC3900007E09FFF90002D
:1018300006E09400FEF0A3EFF022900006E0FEA385
:02184000E0FFC7
:011842002283
:100D3100900008ECF0A3EDF0900006EEF0FAA3EFBE
:020D4100F0FBC5
:100D4300E490000AF0A3F0A3F0A37414F0A3120735
:100D5300DD00000000C3EB9432EA940040169000DB
:100D630008E0FEA3E0FF900006E0FCA3E0FDD39FB4
:100D7300EC9E4003020E0AE412023CE4FBFA797A89
:100D83007844120121C004C005C006C007900008C2
:100D9300E0FCA3E0FDE412023CE4FBFA797A784438
:100DA300120121D003D002D001D000120029C004C7
:100DB300C005C006C007900006E0FCA3E0FDE412F6
:100DC300023CE4FBFA797A7844120121E4FBFA79D4
:100DD300FF7843120121A804A905AA06AB07D0078F
:100DE300D006D005D00412012190000E1207D1E4E1
:100DF300FFFEFDFC90000EE0F8A3E0F9A3E0FAA3E8
:100E0300E0FB1201BE50057E007FFF22E4FFFE7D62
:100E1300E17C4390000EE0F8A3E0F9A3E0FAA3E03D
:100E2300FB1201BE5004E4FEFF22E4FFFE7DF07CD2
:100E33004390000EE0F8A3E0F9A3E0FAA3E0FB126D
:100E430001BE6050404EE4FFFE7DF07CC390000E77
:100E5300E0F8A3E0F9A3E0FAA3E0FB12002D1202ED
:100E63007590000AEEF0A3EFF0FDAC06E412023C2D
:100E73007B717A3D790A7840120121120275900044
:100E83000AEEF0A3EFF090000DE02FF090000CE0DD
:100E93003EF0806690000EE0F8A3E0F9A3E0FAA329
:100EA300E0FBE4FFFE7DF07C431200291202759003
:100EB300000AEEF0A3EFF0FDAC06E412023C7B71F6
:100EC3007A3D790A784012012112027590000AEEE8
:100ED300F0A3EFF0D39414EE9400400990000AE4D9
:100EE300F0A37414F090000AE0FEA3E0FFC39000A7
:100EF3000DE09FF090000CE09EF090000CE0FEA34C
:020F0300E0FF0D
:010F050022C9
:10104500E4900000F0A3F0A3F0A3F0A3F0A3F090C8
:1010550000AFE004F070069000AEE004F0D390001D
:10106500AFE094109000AEE094275003021177E4AE
:10107500F0A3F07B0190000904F0A37400F0A374C1
:1010850004F07A007902121178900002E0FEA3E0E4
:10109500FFA3E0FCA3E0FD120D31900000EEF0A3EC
:1010A500EFF0121788900000EEF0A3EFF07BFF7AC7
:1010B5001B792C900039EEF0A3EFF0120919D390AB
:1010C5000003E09432900002E094005003021156B0
:1010D5001224B6EF704C9000B0E0B40128E4F0D3D0
:1010E500900001E09432900000E0940090008D742F
:1010F500024008F090009414F0800AF090008E14DD
:10110500F0900094F0900099E0FF121CE890009890
:10111500E0FF1214B9900000E0FEA3E0FF1219B140
:1011250080299000ABE0B40118E4FF1223F71223E5
:101135006C900098E0FF1214B99000B27401F08031
:101145000AE4FF1223F77F041223C1E49000ADF0F7
:1011550022E49000ABF09000B2F012236CE4FF1291
:1011650023F79000AC74FFF0FF1214B99000AD7432
:0211750001F087
:011177002255
:101BBA0012246812222D1223DCD2AF12000E122434
:101BCA0026120F067FC87E001222ED12227E7F2087
:101BDA007E0312240F7F02122494E4FF1223F77B60
:101BEA00FF7A1B79321209197BFF7A1B7959900007
:101BFA00397423F0A3743AF012091990003974FF6A
:101C0A00F0A3741BF0A37477F07BFF7A1B7964123C
:101C1A0009197BFF7A1B797F900098E0FF900039C1
:101C2A00E4F0A3EFF01209197BFF7A1B798990007F
:101C3A0099E0FF900039E4F0A3EFF01209197BFF55
:101C4A007A1B79951209191215B61210451224D267
:021C5A0080F513
:10212700900008EEF0A3EFF0A3ECF0A3EDF0D39F3F
:10213700EC9E4004E4FF8022900094E0FFC39000EF
:1021470009E09FFF900008E09400FEC390000BE0B9
:0E2157009F90000AE09E50057F0A1223F72297
:1019B100900006EEF0A3EFF090008EE0B401030278
:1019C1001A54900098E0B40A004003021A63901977
:1019D100D6F82828730219F4021A00021A0C021A06
:1019E10018021A24021A30021A3C021A48021A4832
:1019F100021A54900006E0FCA3E0FD7F1E805E9079
:101A01000006E0FCA3E0FD7F2B8052900006E0FC85
:101A1100A3E0FD7F2F8046900006E0FCA3E0FD7F60
:101A210031803A900006E0FCA3E0FD7F36802E90E5
:101A31000006E0FCA3E0FD7F3C8022900006E0FC74
:101A4100A3E0FD7F418016900006E0FCA3E0FD7F4E
:101A510046800A900006E0FCA3E0FD7F507E001264
:031A610021272218
:10230F00900089E0B40118900098E0D39403400F37
:10231F007403F0FF1214B91222A5E4900089F02281
:1013B3000D0A3D3D3D3D3D3D3D3D3D3D3D3D3D3DBD
:1013C3003D3D3D3D3D3D3D3D3D3D3D3D3D3D3D3D4A
:1013D3003D3D3D3D3D3D3D3D3D3D0D0A00706F773B
:1013E3006572206F6E20666C617368206761703A66
:1013F3002564202074696D65723A2564200D0A0006
:10140300706F776572206F6E20666C6173682076EB
:10141300616C75653A256420207369676E3A2564AB
:10142300200D0A003D3D3D3D3D3D3D3D3D3D3D3DA6
:101433003D3D3D3D3D3D3D3D3D3D3D3D3D3D3D3DD9
:101443003D3D3D3D3D3D3D3D3D3D3D3D0D0A003D69
:101453003D3D3D3D3D3D3D3D3D3D3D3D66697273F9
:101463007420696E697420646174613D3D3D3D3D46
:101473003D3D3D3D3D3D200D0A003078253034583B
:1014830020203078253034582020307825303458C7
:101493002020307825303458200D0A00666C6173A3
:1014A30068206761703A2564202074696D65723A1B
:0614B3002564200D0A0073
:101A7500450098000000000044009D20200501411C
:031A850000A101BC
:0624B6009000A1E0FF22EE
:0624BC009000A1EFF022E8
:1022CB00D310AF01C3C0D075FDF075FC0F8EFA8F24
:1022DB00F975FDD275FC2D75FDE175FC1ED0D09204
:0222EB00AF2220
:10225600D310AF01C3C0D08FFB75FDF075FC0FAE78
:1022660004AF058EFA8FF975FDB475FC4B75FDE16B
:0822760075FC1ED0D092AF22CE
:0C1EEF007B017A0079987D057F047E3C21
:101EFB00D310AF01C3C0D0900008EEF0A3EFF0A356
:0B1F0B00EDF0A3EBF0A3EAF0A3E9F077
:101F1600E4A3F0C2AFF090000AE0FF90000EE0C329
:101F26009F502C90000BE0FBA3E475F001120671A4
:101F3600A9F0FA1205AEFF900008E475F00112064A
:101F460071ADF0FC12225690000EE004F080C7D26C
:011F5600AFDB
:051F5700D0D092AF2282
:040003008F828E83D7
:03000700E493FF80
:01000A0022D3
:10206900900008EEF0A3EFF0A3EBF0A3EAF0A3E9E8
:10207900F0AF051DEF6028900008E475F001120625
:102089007185F082F583E493FF90000AE0FBA3E4F5
:1020990075F001120671A9F0FAEF1205F480D22247
:1021A100E4FDFCED2400FFE4343CFE120003749DC9
:1021B1002DF582E43400F583E0B507030C80037F3D
:1021C10000220DEDB404DCECC3940440037F012232
:0221D1007F008D
:0121D30022E9
:100F0600E4900000F090FE927404F01221A1EF70BC
:100F16000790000004F0807C7BFF7A1379B31209F6
:100F2600197B017A0079987D057F047E3C12206941
:100F36007BFF7A1379E0900098E0FF900039E4F0A7
:100F4600A3EFF0900099E0FF90003BE4F0A3EFF0F0
:100F56001209197BFF7A14790390009AE0FF90003A
:100F660039E4F0A3EFF090009BE0FF90003BE4F043
:100F7600A3EFF01209197BFF7A1479271209199049
:100F86000098E0D394095006A3E09405400690002B
:100F9600007401F0900000E0640160030210227BFF
:100FA600FF7A1479521209199000987401F0A3740B
:100FB60003F07F007E3C1222CB7B017A00799D7D77
:100FC60004121EFB121EEF7B017A00799D7D047FC1
:100FD600007E3C1220697BFF7A14797D90009DE0AB
:100FE600FF900039E4F0A3EFF090009EE0FF900040
:100FF6003BE4F0A3EFF090009FE0FF90003DE4F0AB
:10100600A3EFF09000A0E0FF90003FE4F0A3EFF024
:101016001209197BFF7A1479271209197BFF7A14B2
:10102600799F900098E0FF900039E4F0A3EFF090EC
:0F1036000099E0FF90003BE4F0A3EFF0020919EE
:1022A5007F047E3C1222CB7B017A00799D7D047FE1
:1022B50000121EFB121EEF7B017A0079987D057FC7
:0622C500047E3C022069CA
:0E247800EF1F70011E144E6004000080F3225E
:10240F007DA07C01ED1D70011C144C70F7EF1F7047
:06241F00011E144E70EADC
:012425002294
:0324D60002247865
:1023A60090FF0974C1F090FF08F090FF07F090FFCE
:0B23B60006F0D291D290D287D286228E
:0820A900900039EFF0A3EDF007
:1020B100E4A3F0F090003AE0FFA3E0C39F5027C2F1
:1020C10087900039E020E704C2868002D286D28759
:1020D1007F057E001224D6900039E025E0F09000C3
:0620E1003BE004F080CE9C
:0120E70022D6
:0820E800900039EFF0A3EDF0C8
:1020F000E4A3F0F090003AE0FFA3E0C39F5027C2B2
:1021000087900039E020E004C2868002D286D28720
:102110007F057E001224D6900039E0C313F09000B2
:062120003BE004F080CE5C
:012126002296
:1023C100900007EFF0C2917D047F801220A9900058
:0B23D10007E0FF7D081220A9D2912236
:10220100900037EFF0A3EDF0C2917D037FA0122083
:10221100A9900037E025E025E0FF7D061220A99076
:0C2221000038E0FF7D041220E8D291227A
:0924AD00D291D290D287D286228E
:081A88004100B1004100B20071
:0524C8007F060223C1A4
:0524CD007F040223C1A1
:10234E00E4900000F0F0900000E0FFC39420500DE8
:0D235E007D0F122201900000E004F080E9E4
:01236B00224F
:10236C00E4900036F0F0900036E0FFC39420500D5E
:0D237C00E4FD122201900036E004F080E93B
:012389002231
:10227E001223A67F521223C17F301223C17F0A126E
:10228E0023C17F081223C17F021223C17F061223AE
:07229E00C112236C02234E64
:0E248600E4FD7F1C122201E4FD7F1F022201F3
:101CE800900006EFF07F061223C1E4FD7F1F122249
:101CF80001E4FD7F1C122201900006E014601B1411
:101D0800602314602B14603A1460492405705A7DCE
:101D18000A7F1B1222017D0E80317D0B7F1B122250
:101D2800017D0A80267D0E7F1B1222017D0A801B01
:101D38007D0A7F1B1222017D0A7F1C1222017D0B66
:101D480080227D0A7F1B1222017D0B7F1C1222013B
:101D58007D0A80107D0A7F1B1222017D0A7F1C12DA
:0A1D680022017D0E7F1F12220122CE
:1014B900900006EFF07F061223C1E4FD7F1D122282
:1014C90001E4FD7F1E1222019000B2E06401700E5A
:1014D9009000B1E070057D060215900215A39000F9
:1014E90006E0B401047D068063900006E0B4020BB7
:1014F9007D0B7F1D1222017D0C8065900006E0B4F2
:10150900030B7D0F7F1D1222017D0480539000067D
:10151900E0B4040B7D067F1D1222017D06804190F7
:101529000006E0B4050B7D0D7F1D1222017D0680AA
:101539002F900006E0B4060B7D0D7F1D1222017D60
:101549000E801D900006E0B407067D077F1D8059B7
:10155900900006E0B4080D7D0F7F1D1222017D0E5B
:101569007F1E8045900006E0B4090D7D0F7F1D1296
:1015790022017D067F1E8031900006E0F4702D90D7
:1015890000B1E070157D017F1D1222017D0E7F1EC5
:101599001222019000B17401F022E49000B1F0FD33
:0D15A9007F1C122201E4FD7F1F122201228F
:101A90005E00680000000000000000000000000080
:101AA0000000000000000000000000000000000036
:091AB000004100860041006700BE
:10222D0090FF0E74C1F090FF0F7461F090FFA074D9
:10223D0016F090FFA104F075CEFF75CDE675CC06B6
:09224D00759E02759810D2AC22B6
:0C24A100C2AC8F993099FDC299D2AC22D8
:0324D9000224A139
:0B21D40090000DEBF0A3EAF0A3E9F08F
:1021DF00E4FEEEC39D501A90000DE0FBA3E0FAA3BE
:1021EF00E0F98E827583001205C7FF1224D90E8085
:0121FF00E1FE
:0122000022BB
:10232F009000087455F0A3EFF0A3EDF0A3740DF037
:0F233F00A3740AF07B017A0079087D050221D48E
:0624C200AE071224A12266
:0300230002201C9C
:0D201C00C0E0C083C082C0D075D000C007F6
:10202900E59830E030AF995398FE900086E014604F
:1020390019047021EFB4551D900068F0900066E016
:1020490004F09000867401F0800B900067EFF09027
:0520590000867402F096
:0B205E00D007D0D0D082D083D0E03279
:101AB9004100AB004100A2004200A300004100A583
:0F1AC900004200A600004100A8014200A9000051
:10000E0090FF1D7461F090FF15F090FF16F090FFB9
:03001E0002F022CB
:10184300E4900002F0A2A533900001F09000A2E022
:1018530014602614604E1470030218E62403600318
:101863000218EF900001E060030218F49000A3F067
:10187300A3F09000A204F08078900001E0706B90D8
:1018830000A4E004F070069000A3E004F0C390000D
:10189300A4E094039000A3E09400403E9000A2745F
:1018A30002F08036900001E0B40106A37404F080D6
:1018B3003B9000A4E004F070069000A3E004F0C3A2
:1018C3009000A4E094789000A3E09400400C900072
:1018D300027405F09000A27403F07F0A7E001224C4
:1018E3000F800E900001E0B401078000E49000A295
:0618F300F0900002E0FF8E
:0118F90022CC
:1018FA00E4900002F0A2A633900001F09000A5E067
:10190A0014602614604E14700302199D24036003A8
:10191A000219A6900001E060030219AB9000A6F03C
:10192A00A3F09000A504F08078900001E0706B901D
:10193A0000A7E004F070069000A6E004F0C390004F
:10194A00A7E094039000A6E09400403E9000A5749E
:10195A0002F08036900001E0B40106A37404F0801E
:10196A003B9000A7E004F070069000A6E004F0C3E4
:10197A009000A7E094F09000A6E09400400C90003C
:10198A00027406F09000A57403F07F0A7E00122408
:10199A000F800E900001E0B401078000E49000A5DA
:0619AA00F0900002E0FFD6
:0119B0002214
:101DFC00121843BF05037F01221218FABF062112E5
:101E0C0024B6BF011490009CE0700E9000AB04F05F
:101E1C0090009CF01222A5803CE49000ABF0803541
:101E2C009000A8E0602330A60320B51D9000ABE025
:101E3C0070177F32FE12240FE49000A8F020A60346
:101E4C007F032220B50F7F022230A60930B5069001
:101E5C0000A87401F030A513D39000AAE09401906F
:0D1E6C0000A9E094004004E4F0A3F07F0022
:011E79002246
:1016AA007365742074696D65207365636F6E643A3F
:1016BA0025640D0A0065786368616E67655F686511
:1016CA0061745F76616C7565200D0A0074696D65D9
:1016DA00207365636F6E643A2564200D0A00707288
:1016EA006F74656374200D0A0074696D65206F66F6
:1016FA0066200D0A0074696D655F746F5F302E3560
:10170A0048202074696D655F7365633D2564200D0B
:10171A000A0074696D655F746F5F314820207469CF
:10172A006D655F7365633D2564200D0A0074696DFC
:10173A00655F746F5F3248202074696D655F7365F9
:10174A00633D2564200D0A0074696D655F746F5FDF
:10175A003448202074696D655F7365633D25642094
:10176A000D0A0074696D655F746F5F3848202074D4
:0E177A00696D655F7365633D2564200D0A008F
:101AD800410093004200910000420095000041003F
:101AE800890041008A0041009700410094004100AC
:101AF8008D0042008B000042008F000042008700EA
:051B08000041008E0009
:10238A00900091EEF0A3EFF0E4A3F07BFF7A1679C8
:0C239A00AA900039EEF0A3EFF002091940
:101E7A00EFB40A00506E901E87F8282873021EA538
:101E8A00021EAF021EB1021EB3021EBD021EC7020F
:101E9A001ED1021EDB021EE5021EE5900087E4F059
:101EAA00A3741EF02280028000900087E4F0A374DD
:101EBA003CF022900087E4F0A3745AF02290008745
:101ECA00E4F0A37478F022900087E4F0A37496F00B
:101EDA0022900087E4F0A374B4F022900087E4F023
:051EEA00A374F0F022DA
:101FC600900098E0B40A00504C901FD6F828287369
:101FD600021FF6021FF6021FF8021FFA021FFC027A
:101FE6001FFE02200502200C02200E021FF6801F93
:101FF600801D8004800280009000947402F022907C
:1020060000947405F02280009000947408F02290E9
:0620160000947401F022A9
:1021650090008DE0B4023490008BE475F001120606
:102175005BFEC3900088E095F0900087E09E501BC1
:102185007BFF7A1679BF120919E490008DF0900053
:0C2195008BF0A3F090008EF0121FC62209
:101D7200E4900093F0900099E0FF7008900091F0D9
:101D8200A3F08052EFB4010C9000917407F0A30409
:101D9200F0E48042EFB4020D900091740EF0A3744F
:101DA20010F0E48031EFB4030D900091741CF0A3A5
:101DB2007420F0E48020EFB4040D9000917438F0A8
:101DC200A37440F0E4800FEFB40517900091747093
:101DD200F0A37480F0E4900095F0A3F090008FF0EF
:101DE200A3F07BFF7A1679D6900091E0FFA3E090F2
:0A1DF2000039CFF0A3EFF002091949
:10242600E490FE80F0F589758CF2758AFBC28DD238
:06243600A9D28CD2AF22F6
:03000B000212A43A
:1012A400C0E0C0F0C083C082C0D075D000C000C010
:1012B40001C002C003C004C005C006C0071224B6A2
:1012C400EF6003021398900093E004F0E0C3946489
:1012D4005003021398122165900097E0B4022D90F8
:1012E4000096E004F07006900095E004F0D39000BE
:1012F40096E09420900095E0941C4010900097E4B0
:10130400F0900095F0A3F090008904F0D39000923F
:10131400E09400900091E094004048A3E024FFF0A2
:10132400900091E034FFF090008AE06402706090D5
:101334000096E004F07006900095E004F0D390006D
:1013440096E09420900095E0941C404390008974AA
:1013540001F0A3E4F0900095F0A3F07BFF7A1679F6
:10136400E88029900099E060267F011224BC900057
:1013740091E4F0A3F0900095F0A3F090008AF0902F
:101384000097F012236C7BFF7A1679F312091990F7
:101394000093E4F0D007D006D005D004D003D002E7
:0F13A400D001D000D0D0D082D083D0F0D0E032B2
:101F5C0090008FE475F00112065BFEE5F08EF01236
:101F6C0008541F8607081F8E0E101F961C201F9EDC
:101F7C0038401FA6708000001FC57BFF7A1679FFC2
:101F8C00801E7BFF7A17791C80167BFF7A177937B6
:101F9C00800E7BFF7A17795280067BFF7A17796D5A
:101FAC00900091E0FFA3E0900039CFF0A3EFF01286
:0A1FBC000919E490008FF0A3F02251
:041B0D004100B300E0
:1023F7007E009000B3E0FD7C00120881E47B64FA64
:07240700F9F81207318FDF25
:01240E0022AB
:1022ED0090FF0074C1F0E490FF9CF0AC06AD077E4A
:1022FD007A7F12120606EF149000B3F0F5DE75DD4D
:02230D00972215
:1023DC0090FF017401F090FF03F075B4807F147EC0
:0B23EC000012247890FE9B7449F02240
:10243C00E4FFFE75B50143B440E5B430E5FB53B49D
:05244C00DFAEB7AFB6E2
:012451002268
:10245200E4FFFE75B50343B440E5B430E5FB53B485
:05246200DFAEB7AFB6CC
:012467002252
:0B117800900006EBF0A3EAF0A3E9F002
:1011830090000C1207DD00000000E4900010F0F066
:1011930090000CE0F8A3E0F9A3E0FAA3E0FB12242B
:1011A3003CE4FCFDEB2FFFEA3EFEED39FDEC38FCA1
:1011B30090000C1207D1900010E004F0E0C39405F6
:1011C30040CE90000CE0FCA3E0FDA3E0FEA3E0FF13
:1011D300E47B05FAF9F812073190000C1207D1E409
:1011E3007F887E13FDFC90000CE0F8A3E0F9A3E0F8
:1011F300FAA3E0FB1206A6E4FB7A10F9F812073112
:10120300900006E0FBA3E0FAA3E0F9EE8FF01206EC
:101213008790000C1207DD00000000E4900010F03E
:1012230090000CE0F8A3E0F9A3E0FAA3E0FB12249A
:1012330052E4FCFDEB2FFFEA3EFEED39FDEC38FCFA
:1012430090000C1207D1900010E004F0E0C3940565
:1012530040CE90000CE0FCA3E0FDA3E0FEA3E0FF82
:10126300E47B05FAF9F812073190000C1207D1E478
:101273007F887E13FDFC90000CE0F8A3E0F9A3E067
:10128300FAA3E0FB1206A6E4FB7A10F9F812073181
:10129300900009E0FBA3E0FAA3E0F9EE8FF0020669
:0112A30087C3
:0D24940075BD17EF75F02BA490FEA0F0228F
:0424D20043BD1022D4
:100026000202E1E86480F8E933E83360110460F025
:10003600ED33EC337009E8FCE9FDEAFEEBFF220440
:1000460060DED3EB9FEA9EE99DE8C2E78CF0C2F73B
:1000560095F0400CE8CCF8E9CDF9EACEFAEBCFFB07
:100066001202AC85D0F05804700320D5B3E80470B2
:10007600075002B2D50202EB92D5EC0460F7E4CC4D
:10008600C0E0C398F8603B94186008400DD0E0FBD0
:100096000202C3E4FBFAC9FC8028E830E406E4C99E
:1000A600FBE4CAFCE830E305E4C9CACBFCE8540724
:1000B6006010F8C3E913F9EA13FAEB13FBEC13FC2F
:1000C600D8F130F52FC3E49CFCEF9BFFEE9AFEEDD2
:1000D60099FDD0E0FBEF4E4D4C701222DB0302027D
:1000E600E8EC2CFCEF33FFEE33FEED33FDED30E7AD
:1000F600EB0202C3EF2BFFEE3AFEED39FDD0E0FB3B
:1001060050130BBB00030202EBED13FDEE13FEEFE3
:0801160013FFEC13FC0202C30D
:10011E000202EBEC5D046005E8590470030202E193
:10012E001202AC580460F6EC4860F2EC7004FDFE6E
:10013E00FF22C860DB2481C85009C39860025006B4
:10014E000202E89850CAF582E9294B4A7005AB8243
:10015E000202D775F0007C1A7880C3EF9BEE9AED01
:10016E0099400DC3EF9BFFEE9AFEED99FDE842F02C
:10017E00DC23ACF0D0E0FFD0E0FED0E0FDAB82207F
:10018E00E7101BEB60BAEC2CFCEF33FFEE33FEED09
:10019E0033FD0202C3E803F830E705C0F075F00046
:1001AE00EF2FFFEE33FEED33FD40B830E7C280AAED
:1001BE0074F8CC6480CCC86480C8F58204604FC3E8
:1001CE00EB9FF5F0EA9E42F0E99D42F0E89C45F087
:1001DE00603C501DE5825FFFE582D313CB5BCBF411
:1001EE002B5582FB50280ABA002409B9002008803A
:1001FE001DE5825BFBE582D313CF5FCFF4C3132FD4
:10020E005582FF50090EBE00050DBD00010CC3EB5B
:10021E009FF5F0EA9E42F0E99D42F0E89C45F060C1
:09022E0007CC4820E701B3EC22E3
:1002370075F020800E75F010800575F0087D007E42
:10024700007F003392D530D5031207C3EC3340103B
:10025700EF33FFEE33FEED33FDEC33FCD5F0ED224B
:0E026700E5F0247EA2D513CC92E7CDCEFF2287
:10027500EDD2E7CD33EC3392D524814006E4FFFE81
:10028500FDFC22FCE4CFCECDCC24E0501174FF80E0
:10029500EDC3CC13CCCD13CDCE13CECF13CF04707D
:0702A500F030D5DE0207C3B3
:1008AE00E50D2439F582E43400F583E0050D229040
:1008BE000036301003900039E475F00112080E0274
:1008CE0005AE2009E97F2ED2098018EF540F24902F
:1008DE00D43440D4FF300D0BEF24BFB41A005003B4
:1008EE002461FFE50E6002150E0511E5117002057B
:1008FE001030100E900036E475F00112080EEF0263
:10090E0005F40224C27403D2108003E4C210F50D64
:10091E00900036120825E4F50EF510F511E50E607F
:10092E00077F201208F180F5750FFFC20AC209C2B7
:10093E000BC20CC20EC20FC2111208BDFF700D30D9
:10094E0010057F00120902AF11AE1022B4255FC24E
:10095E00D5C20D1208BDFF24D0B40A00501A75F08E
:10096E000A780E30D50508B6FF0106C6A426F62075
:10097E00D5047002D20C80D924CFB41A00EF5004E3
:10098E00C2E5D20D020BF4D20A80C6D20980C0D2C3
:10099E000B80BCD2D580BAD20E80B47F201208F163
:1009AE00200B077401B50E0040F11208AEFF1208BD
:1009BE00F102092BD211D20F80951208AEFB12084C
:1009CE00AEFA1208AEF94A4B700679F27A0C7BFF3A
:1009DE00200B2EE50E602A7E008E82758300120596
:1009EE00C760060EEE650F70F0C2D5EBC0E0EAC030
:1009FE00E0E9C0E0EE120C55D0E0F9D0E0FAD0E01C
:100A0E00FB1205AEFF60AAEBC0E0EAC0E0E9C0E071
:100A1E001208F1D0E02401F9D0E03400FAD0E0FB66
:100A2E00E50F0460DCD50FD98087D20B80A2120CA3
:100A3E003760F7E50F7001041202F6A90F600DE59D
:100A4E000F600914F50F120CDFEF60F3EA30E702C6
:100A5E00F404C3995079EAF4250F0430E701E40455
:100A6E00F50F800D120C3760C1EA050F250F12022B
:100A7E00F6EA900065F030E701E4250F04D50F0487
:100A8E00200E0114120C55E4C0E0120CDF9000652C
:100A9E00E0601320E70714F01208D9802204F0D08A
:100AAE00E014C0E07F001208D9E50F60071208D0ED
:100ABE00150F800B300E031208D0D0E002092BD098
:100ACE00E00480C4120C37609EE50F041202F6900B
:100ADE000065EAF0E50F200E026001042404120CFA
:010AEE0055B2
:100AEF0074FF04C0E0120CDF1208D9E50F200E02CC
:100AFF0060031208D0D0E0B50FE87F451208E390ED
:100B0F000065E07F2B30E7047F2DF404C0E012086E
:100B1F00F1D0E075F00A84C0F01208DAD0E01208C4
:100B2F00DA02092B791080027908C20FC2118008EE
:100B3F00D2D5790A8004790AC2D5E50F047002F57F
:100B4F000FE4FAFDFEFF1208AEFC7B08200A131219
:100B5F0008AEFD7B1030090A1208AEFE1208AEFF78
:100B6F007B20EC3382D592D55013C3E43009069F16
:100B7F00FFE49EFEE4200A039DFDE49CFCE4CBF819
:100B8F00C20AEC700CCFCECDCCE824F8F870F3800D
:100B9F0017C3EF33FFEE33FEED33FDEC33FCEB33D6
:100BAF00FB994002FB0FD8E9EB300A05F8D0E0C4FF
:100BBF0048B20AC0E00AEC4D4E4F78207B0070C25D
:100BCF00EAB50F0040BCC0E0120C57D0F0D0E020C7
:100BDF000A04C4C0E0C4B20AC0F01208DAD0F0D5DB
:100BEF00F0EB02092B12082E09C8530B3358099941
:100BFF004C0995420B374F0B3F440B3F4909AE430E
:100C0F000B45550A72460AD2450A3C470D12500948
:100C1F009D2D09A12E09C42B09A52309C2200CFB68
:100C2F002A095D48000009BCE50FB4FF03750F06E4
:100C3F001208AEFC1208AEFD1208AEFE1208AEFF8F
:100C4F0090005E020333790AA2D5200C14300E09EE
:100C5F00B910020404B9080104A2D5200F025001F3
:100C6F0004200B68920BB50E005034C0E07F20308B
:100C7F000C197F30A20B720F720E500F120CAEC2F6
:100C8F000BC20FC20EC2117F30800F300E03E9C0AE
:100C9F00E01208F1300E03D0E0F9D0E0B50ECC3001
:100CAF000E177F30B9100C1208F17F58300D077FE7
:100CBF00788003B908031208F1300B057F2D020865
:100CCF00F17F202011F87F2B200FF322920B80CF82
:100CDF007F00B40700500B245EF582E43400F583E7
:100CEF00E0FF22286E756C6C2900D20A1208AE3014
:100CFF000AF8C20A780E30D50108F602095D2D50A8
:100D0F004349581208AE2403B405004001E4900D86
:100D1F000D931208E2743A1208E2D20C750E040217
:020D2F000B3384
:1002AC00E9D2E7C933E833F892D5EDD2E7CD33EC98
:0702BC0033FC5002B2D52211
:1002C300EC30E7100FBF000C0EBE00080DBD00049C
:1002D3000BEB6014A2D5EB13FCED92E7FD2274FF48
:1002E300FCFDFEFF22E480F8A2D574FF13FC7D80A1
:0302F300E480EFB5
:1002F600F920E73624F950037907E4F42402FBE5F4
:1003060082158270021583DBF6E024FB501BE96040
:1003160014E4F0E582158270021583E004F0B40A55
:0D03260008E4F0D9EE7401F00A22C2D522DD
:10033300ED33EC3392D5FA602AB4FF33EDC2E77B99
:10034300FF60067A037958E4227A03796120D504A1
:100353007A03795C224E614E002B494E46002D49AB
:100363004E4600E47A08F0A3DAFC7B00740722C04F
:1003730083C082ECC0E0EDC0E0EEC0E0EFC0E0EA95
:1003830075F010A4CAABF075F04DA42BFBE435F067
:10039300FCEA2410FAEB34C5FBEC34D9FCEDC2E7DC
:1003A300FF75F056A4F42411C5F0F434C58FF0A4FE
:1003B3002AE5F03BE43CF020E71412056ED0E0FFA1
:1003C300D0E0FED0E0FDD0E0FC1201218014F40463
:1003D30012056ED0E0FFD0E0FED0E0FDD0E0FC12CD
:1003E3000438D082D083E0FAEDD2E7CD33EC332466
:1003F30082FBE4C3CF33CFCE33CECD33CD33DBF368
:100403007B0775F00A846004F0A31B0AE5F0F0A3F0
:100413008FF0740AA4FFACF08EF0740AA42CFEAC27
:10042300F050010C8DF0740AA42CFDE435F0F0A318
:05043300DBDE7407226E
:10043800EC4D6011E8497017ED33EC3304600DE4BE
:10044800FCFFFEFD22E933E8330470F80202E112F2
:1004580002AC58046009E4CC2481500628500902F3
:1004680002EB2840030202E8C0E0EB4A7044B9807E
:1004780006D0E0FB0202D7EF4E701CBD8008EBFFF0
:10048800EAFEE9FD80EBE98DF0A4FEE5F002052126
:10049800E9CDF9EAFEEBFFEF89F0A4FCE5F0CE899F
:1004A800F0A42EFFE435F0CD89F0A42DFEE435F05C
:1004B8008067EF4E7005BD80D780C3EF8BF0A4AC8A
:1004C800F0EE8BF0A42CFCE435F0F8EF8AF0A42CC5
:1004D800E5F038FCE433CB8DF0A42CFCE5F03BF8D8
:1004E800EE8AF0A42CFCE5F038F8E433CF89F0A4C8
:1004F8002CFCE5F038CF3400CE89F0A42FFFE5F0CE
:100508003EFEE433C98DF0A42EFEE5F039CD8AF025
:10051800A42FFFE5F03EFEE43DFD33D0E0FB50079D
:100528000BBB000F0202EBEC2CFCEF33FFEE33FEAB
:06053800ED33FD0202C3D9
:10053E003F8000004120000042C80000447A0000C5
:10054E00461C400047C35000497424004B18968047
:10055E004CBEBC205A0E1BCA6753C21C749DC5AE3E
:10056E00FB60065407601C232312059CEB54386075
:10057E0009120588120597120438ECF8EDF9EEFA17
:10058E00EFCB22EB12059780F1543803241C900513
:10059E003EFE93FC0EEE93FD0EEE930ECE93FF22D7
:101C6800021BBAE493A3F8E493A34003F68001F2BD
:101C780008DFF48029E493A3F85407240CC8C3337D
:101C8800C4540F4420C8834004F456800146F6DF4C
:101C9800E4800B0102040810204080901A64E47E5E
:101CA800019360BCA3FF543F30E509541FFEE49341
:101CB800A360010ECF54C025E060A840B8E493A308
:101CC800FAE493A3F8E493A3C8C582C8CAC583CA33
:101CD800F0A3C8C582C8CAC583CADFE9DEE780BEEB
:011B110000D3
:1005AE00BB010689828A83E0225002E722BBFE024B
:0905BE00E32289828A83E493227E
:1005C700BB010CE58229F582E5833AF583E02250E9
:1005D70006E92582F8E622BBFE06E92582F8E22233
:0D05E700E58229F582E5833AF583E493224D
:1005F400BB010689828A83F0225002F722BBFE01E6
:02060400F322DF
:10060600BC000BBE0029EF8DF084FFADF022E4CCD8
:10061600F875F008EF2FFFEE33FEEC33FCEE9DECA1
:10062600984005FCEE9DFE0FD5F0E9E4CEFD22EDE7
:10063600F8F5F0EE8420D21CFEADF075F008EF2F31
:10064600FFED33FD4007985006D5F0F222C398FD22
:050656000FD5F0EA22BF
:10065B00C5F0F8A3E028F0C5F0F8E582158270022A
:06066B001583E038F022C7
:10067100A3F8E0C5F025F0F0E5821582700215833C
:06068100E0C838F0E82299
:10068700BB010A89828A83F0E5F0A3F0225006F7BE
:0F06970009A7F01922BBFE06F3E5F009F31922BB
:1006A600E88FF0A4CC8BF0A42CFCE98EF0A42CFCF3
:1006B6008AF0EDA42CFCEA8EF0A4CDA8F08BF0A471
:1006C6002DCC3825F0FDE98FF0A42CCD35F0FCEBD0
:1006D6008EF0A4FEA9F0EB8FF0A4CFC5F02ECD3995
:0F06E600FEE43CFCEAA42DCE35F0FDE43CFC2202
:1006F50075F008758200EF2FFFEE33FECD33CDCCBC
:1007050033CCC58233C5829BED9AEC99E58298403E
:100715000CF582EE9BFEED9AFDEC99FC0FD5F0D61B
:10072500E4CEFBE4CDFAE4CCF9A88222B800C1B945
:100735000059BA002DEC8BF084CFCECDFCE5F0CB83
:10074500F97818EF2FFFEE33FEED33FDEC33FCEBBC
:1007550033FB10D703994004EB99FB0FD8E5E4F977
:10076500FA227818EF2FFFEE33FEED33FDEC33FC64
:10077500C933C910D7059BE99A4007EC9BFCE99A58
:10078500F90FD8E0E4C9FAE4CCFB2275F010EF2F9D
:10079500FFEE33FEED33FDCC33CCC833C810D7079D
:1007A5009BEC9AE899400AED9BFDEC9AFCE899F8D8
:0E07B5000FD5F0DAE4CDFBE4CCFAE4C8F9226B
:0E07C300C3E49FFFE49EFEE49DFDE49CFC2247
:0C07D100ECF0A3EDF0A3EEF0A3EFF0229B
:1007DD00A8828583F0D083D0821207F41207F41219
:1007ED0007F41207F4E473E493A3C583C5F0C5833E
:1007FD00C8C582C8F0A3C583C5F0C583C8C582C866
:01080D0022C8
:10080E00F8E0FBA3A3E0F925F0F0E5821582700273
:07081E001583E0FA38F02217
:09082500EBF0A3EAF0A3E9F022D4
:10082E00D083D082F8E4937012740193700DA3A359
:10083E0093F8740193F5828883E47374029368606D
:06084E00EFA3A3A380DF6D
:10085400D083D082F8E4937012740193700DA3A333
:1008640093F8740193F5828883E473740293B5F06A
:0D087400067403936860E9A3A3A3A380D8D2
:10088100EC8EF0A4CCC5F0CCCDF8EFA4CEC5F02D04
:10089100FDE43CFCE8A42EC8C5F03DFDE43CFCEFC2
:0D08A100A4FFE5F028FEE43DFDE43CFC2250
:00000001FF
