:03000000021CC51A
:0C1CC500787FE4F6D8FD758122021D0C2A
:1017BF00206B65795F7363616E0D0A00204B45598D
:1017CF005F325F505245530D0A0052203D2025666F
:1017DF0020200D0A0074656D702076616C3A2564C7
:1017EF00200D0A0063616C695F74656D702076610E
:1017FF006C3A2564200D0A000D0A3D3D3D3D3D3DEF
:10180F003D3D3D3D3D3D3D3D3D3D3D3D3D3D3D3DF9
:10181F003D3D3D3D3D3D3D3D3D3D3D3D0D0A007353
:10182F006B753A4B2564200D0A00736F6674207632
:10183F00657273696F6E3A2573200D0A00312E3071
:10184F00302E303000676170202564200D0A00743F
:10185F00696D6572202564200D0A003D3D3D3D3DBB
:10186F003D3D3D3D3D3D3D3D3D3D3D3D3D3D3D3D99
:10187F003D3D3D3D3D3D3D3D3D3D3D3D3D0D0A0029
:101B75004200BA00004100BC004100B9004100B874
:011B8500005F
:1024CD00758E5390FE917401F090FF027410F022FE
:1015ED00E4900000F09000B9E0700A121E659000C2
:1015FD0000EFF08005E4900000F0900000E0640141
:10160D0070489000B7E070427BFF7A1779BF1209DE
:10161D001912251BEF700D7F011225211223D1E424
:10162D00FF02245CE4FF122521121DDB9000BC7427
:10163D0001F09000A4E0FF121EE39000A4E0FF1261
:10164D0014F09000A5E0FF021D5112251BEF600361
:10165D000216E0900000E0640270507BFF7A17796B
:10166D00CB1209199000A4E0C394095005E004F0D1
:10167D0080069000A47401F09000A4E0FFD39403C1
:10168D004016A3E0FE70059000A38009EED39403ED
:10169D0040069000967402F09000BC7401F0121E8A
:1016AD00E39000A4E0FF1214F08025900000E0B458
:1016BD0003219000A5E0C394055005E004F08005DA
:1016CD00E49000A5F09000A5E0FF121D51121DDB66
:0316DD0012230ACB
:0116E00022E7
:08194C00900006EEF0A3EFF09D
:10195400900092E06402706A9000B7E064017062E3
:10196400900006A3E0FFE4900092F09000A804F039
:10197400900073E0FED3940F4048EED39F400CE0F8
:101984009F9000A6F0A37401F08016900073E0FE0F
:10199400C3EF9EFF9000A6F01225069000A77402E4
:1019A400F09000A6E0FFC394024006EFD3941440E5
:1019B40007E49000A6F0A3F012230A7D027F02122E
:1019C40023949000A7E0FDB401149000A6E0FF7EEC
:1019D40000900006EE8FF012065BAFF0FE22EDB42D
:1019E40002189000A6E0FFC3900007E09FFF90005C
:1019F40006E09400FEF0A3EFF022900006E0FEA3C0
:021A0400E0FF01
:011A060022BD
:100D3100900008ECF0A3EDF0900006EEF0FAA3EFBE
:020D4100F0FBC5
:100D4300E490000AF0A3F0A3F0A37414F0A3120735
:100D5300DD00000000C3EB9432EA940040169000DB
:100D630008E0FEA3E0FF900006E0FCA3E0FDD39FB4
:100D7300EC9E4003020E0AE412023CE4FBFA797A89
:100D83007844120121C004C005C006C007900008C2
:100D9300E0FCA3E0FDE412023CE4FBFA797A784438
:100DA300120121D003D002D001D000120029C004C7
:100DB300C005C006C007900006E0FCA3E0FDE412F6
:100DC300023CE4FBFA797A7844120121E4FBFA79D4
:100DD300FF7843120121A804A905AA06AB07D0078F
:100DE300D006D005D00412012190000E1207D1E4E1
:100DF300FFFEFDFC90000EE0F8A3E0F9A3E0FAA3E8
:100E0300E0FB1201BE50057E007FFF227BFF7A17B5
:100E130079D990000EE0FCA3E0FDA3E0FEA3E0FF80
:100E23009000451207D1120919E4FFFE7DE17C43CE
:100E330090000EE0F8A3E0F9A3E0FAA3E0FB1201AF
:100E4300BE5004E4FEFF22E4FFFE7DFA7C439000E3
:100E53000EE0F8A3E0F9A3E0FAA3E0FB1201BE6001
:100E630050404EE4FFFE7DFA7CC390000EE0F8A3F1
:100E7300E0F9A3E0FAA3E0FB12002D120275900043
:100E83000AEEF0A3EFF0FDAC06E412023C7B337AEA
:100E9300337913784012012112027590000AEEF0A3
:100EA300A3EFF090000DE02FF090000CE03EF080F7
:100EB3006690000EE0F8A3E0F9A3E0FAA3E0FBE4F8
:100EC300FFFE7DFA7C4312002912027590000AEEA0
:100ED300F0A3EFF0FDAC06E412023C7B337A3379E6
:100EE30013784012012112027590000AEEF0A3EF6D
:100EF300F0D39414EE9400400990000AE4F0A37434
:100F030014F090000AE0FEA3E0FFC390000DE09F01
:0F0F1300F090000CE09EF090000CE0FEA3E0FFD9
:010F220022AC
:100F2300E4900000F0A3F0A3F0A3F0A3F0A3F090EB
:100F330000BBE004F070069000BAE004F0D3900028
:100F4300BBE094109000BAE09427500302106FE4C2
:100F5300F0A3F07B0190000904F0A37400F0A374E4
:100F630004F07A0079021211AF900002E0FEA3E0D0
:100F7300FFA3E0FCA3E0FD120D31900000EEF0A30F
:100F8300EFF07BFF7A1779E4900045EEF0A3EFF0E2
:100F9300120919900000E0FEA3E0FF12194C900023
:100FA30000EEF0A3EFF07BFF7A1779F3900045EEA4
:100FB300F0A3EFF0120919D3900003E094329000EC
:100FC30002E09400500302104E12251BEF704D9067
:100FD30000BCE0B40129E4F0D3900001E094329026
:100FE3000000E0940090009974024009F09000A082
:100FF3007408F0800AF090009A14F09000A0F0902A
:1010030000A5E0FF121D519000A4E0FF1214F09020
:101013000000E0FEA3E0FF12188F80299000B7E0E4
:10102300B40118E4FF12245C1223D19000A4E0FF62
:101033001214F09000BE7401F0800AE4FF12245CE5
:101043007F04122426E49000B9F022E49000B7F064
:101053009000BEF01223D1E4FF12245C9000B87418
:0C106300FFF0FF1214F09000B97401F0CF
:01106F00225E
:101C23001224CD122292122441D2AF12000E12249A
:101C33008B1210707FC87E001223521222E37F2082
:101C43007E031224747F021224F9E4FF12245C7BC6
:101C5300FF7A1879071209197BFF7A18792E9000F9
:101C6300457423F0A3743AF012091990004574FFE8
:101C7300F0A37418F0A3744CF07BFF7A187939122F
:101C830009197BFF7A1879549000A4E0FF9000456E
:101C9300E4F0A3EFF01209197BFF7A18795E900044
:101CA300A5E0FF900045E4F0A3EFF01209197BFFD4
:101CB3007A18796A1209191215ED120F23122537B2
:021CC30080F5AA
:10218C00900008EEF0A3EFF0A3ECF0A3EDF0D39FDA
:10219C00EC9E4004E4FF80229000A0E0FFC390007E
:1021AC0009E09FFF900008E09400FEC390000BE054
:0E21BC009F90000AE09E50057F0A12245C22CC
:10188F00900006EEF0A3EFF090009AE0B4010D90F7
:10189F000006E0FCA3E0FD7F500219469000A4E093
:1018AF00B40A00400302194B9018BEF8282873029F
:1018BF0018DC0218E80218F402190002190C0219B8
:1018CF001802192402193002193002193C9000062F
:1018DF00E0FCA3E0FD7F1E805E900006E0FCA3E02D
:1018EF00FD7F2B8052900006E0FCA3E0FD7F2F8050
:1018FF0046900006E0FCA3E0FD7F31803A900006A1
:10190F00E0FCA3E0FD7F36802E900006E0FCA3E014
:10191F00FD7F3C8022900006E0FCA3E0FD7F41802C
:10192F0016900006E0FCA3E0FD7F46800A900006BB
:0D193F00E0FCA3E0FD7F4B7E0012218C2216
:10237400900095E0B401189000A4E0D39403400FBA
:102384007403F0FF1214F012230AE4900095F02273
:1013EA000D0A3D3D3D3D3D3D3D3D3D3D3D3D3D3D86
:1013FA003D3D3D3D3D3D3D3D3D3D3D3D3D3D3D3D13
:10140A003D3D3D3D3D3D3D3D3D3D0D0A00706F7703
:10141A006572206F6E20666C617368206761703A2E
:10142A002564202074696D65723A2564200D0A00CE
:10143A00706F776572206F6E20666C6173682076B4
:10144A00616C75653A256420207369676E3A256474
:10145A00200D0A003D3D3D3D3D3D3D3D3D3D3D3D6F
:10146A003D3D3D3D3D3D3D3D3D3D3D3D3D3D3D3DA2
:10147A003D3D3D3D3D3D3D3D3D3D3D3D0D0A003D32
:10148A003D3D3D3D3D3D3D3D3D3D3D3D66697273C2
:10149A007420696E697420646174613D3D3D3D3D0F
:1014AA003D3D3D3D3D3D200D0A0030782530345804
:1014BA002020307825303458202030782530345890
:1014CA002020307825303458200D0A00666C61736C
:1014DA0068206761703A2564202074696D65723AE4
:0614EA002564200D0A003C
:101B86004500A400000000004400A92020050141F2
:031B960000AD019E
:06251B009000ADE0FF227C
:062521009000ADEFF02276
:10233000D310AF01C3C0D075FDF075FC0F8EFA8FBE
:10234000F975FDD275FC2D75FDE175FC1ED0D0929E
:02235000AF22BA
:1022BB00D310AF01C3C0D08FFB75FDF075FC0FAE13
:1022CB0004AF058EFA8FF975FDB475FC4B75FDE106
:0822DB0075FC1ED0D092AF2269
:0C1F58007B017A0079A47D057F047E3CAB
:101F6400D310AF01C3C0D0900008EEF0A3EFF0A3EC
:0B1F7400EDF0A3EBF0A3EAF0A3E9F00E
:101F7F00E4A3F0C2AFF090000AE0FF90000EE0C3C0
:101F8F009F502C90000BE0FBA3E475F0011206713B
:101F9F00A9F0FA1205AEFF900008E475F0011206E1
:101FAF0071ADF0FC1222BB90000EE004F080C7D29E
:011FBF00AF72
:051FC000D0D092AF2219
:040003008F828E83D7
:03000700E493FF80
:01000A0022D3
:1020CE00900008EEF0A3EFF0A3EBF0A3EAF0A3E983
:1020DE00F0AF051DEF6028900008E475F0011206C0
:1020EE007185F082F583E493FF90000AE0FBA3E490
:1020FE0075F001120671A9F0FAEF1205F480D222E2
:10220600E4FDFCED2400FFE4343CFE12000374A957
:102216002DF582E43400F583E0B507030C80037FD7
:1022260000220DEDB404DCECC3940440037F0122CC
:022236007F0027
:012238002283
:10107000E4900000F090FE927404F0122206EF70EB
:101080000790000004F0807C7BFF7A1379EA120954
:10109000197B017A0079A47D057F047E3C1220CE65
:1010A0007BFF7A1479179000A4E0FF900045E4F0EC
:1010B000A3EFF09000A5E0FF900047E4F0A3EFF06D
:1010C0001209197BFF7A14793A9000A6E0FF90008C
:1010D00045E4F0A3EFF09000A7E0FF900047E4F0B4
:1010E000A3EFF01209197BFF7A14795E12091990A7
:1010F00000A4E0D394095006A3E0940540069000B4
:10110000007401F0900000E06401600302118C7B28
:10111000FF7A1479891209199000A47401F0A3745C
:1011200003F07F007E3C1223307B017A0079A97D99
:1011300004121F64121F587B017A0079A97D047F75
:10114000007E3C1220CE7BFF7A1479B49000A9E097
:10115000FF900045E4F0A3EFF09000AAE0FF9000BC
:1011600047E4F0A3EFF09000ABE0FF900049E4F01B
:10117000A3EFF09000ACE0FF90004BE4F0A3EFF0A1
:101180001209197BFF7A14795E1209197BFF7A1410
:1011900079D69000A4E0FF900045E4F0A3EFF09032
:0F11A00000A5E0FF900047E4F0A3EFF00209196B
:10230A007F047E3C1223307B017A0079A97D047F09
:10231A0000121F64121F587B017A0079A47D057F81
:06232A00047E3C0220CEFF
:0E24DD00EF1F70011E144E6004000080F322F9
:102474007DA07C01ED1D70011C144C70F7EF1F70E2
:06248400011E144E70EA77
:01248A00222F
:03253B000224DD9A
:10240B0090FF0974C1F090FF08F090FF07F090FF68
:0B241B0006F0D291D290D287D2862228
:08210E00900045EFF0A3EDF095
:10211600E4A3F0F0900046E0FFA3E0C39F5027C27F
:1021260087900045E020E704C2868002D286D287E7
:102136007F057E0012253B900045E025E0F09000EB
:0621460047E004F080CE2A
:01214C002270
:08214D00900045EFF0A3EDF056
:10215500E4A3F0F0900046E0FFA3E0C39F5027C240
:1021650087900045E020E004C2868002D286D287AF
:102175007F057E0012253B900045E0C313F09000DB
:0621850047E004F080CEEB
:01218B002231
:10242600900007EFF0C2917D047F8012210E90008C
:0B24360007E0FF7D0812210ED291226A
:10226600900043EFF0A3EDF0C2917D037FA0122111
:102276000E900043E025E025E0FF7D0612210E903A
:0C2286000044E0FF7D0412214DD29122A3
:09251200D291D290D287D2862228
:081B99004100BD004100BE0047
:05252D007F06022426D8
:052532007F04022426D5
:1023B300E4900000F0F0900000E0FFC39420500D83
:0D23C3007D0F122266900000E004F080E91A
:0123D00022EA
:1023D100E4900042F0F0900042E0FFC39420500DE1
:0D23E100E4FD122266900042E004F080E965
:0123EE0022CC
:1022E30012240B7F521224267F301224267F0A12D7
:1022F30024267F081224267F021224267F06122416
:07230300261223D10223B3CF
:0E24EB00E4FD7F1C122266E4FD7F1F022266C4
:101D5100900006EFF07F06122426E4FD7F1F122279
:101D610066E4FD7F1C122266900006E014601B14DD
:101D7100602314602B14603A1460492405705A7D65
:101D81000A7F1B1222667D0E80317D0B7F1B122282
:101D9100667D0A80267D0E7F1B1222667D0A801BCE
:101DA1007D0A7F1B1222667D0A7F1C1222667D0B33
:101DB10080227D0A7F1B1222667D0B7F1C12226608
:101DC1007D0A80107D0A7F1B1222667D0A7F1C120C
:0A1DD10022667D0E7F1F122266229B
:1014F000900006EFF07F06122426E4FD7F1D1222E5
:1015000066E4FD7F1E1222669000BEE06401700E4C
:101510009000BDE070057D060215C70215DA900047
:1015200006E0B401047D068063900006E0B4020B7F
:101530007D0B7F1D1222667D0C8065900006E0B455
:10154000030B7D0F7F1D1222667D048053900006E1
:10155000E0B4040B7D067F1D1222667D068041905B
:101560000006E0B4050B7D0D7F1D1222667D06800E
:101570002F900006E0B4060B7D0D7F1D1222667DC4
:101580000E801D900006E0B407067D077F1D805980
:10159000900006E0B4080D7D0F7F1D1222667D0EBF
:1015A0007F1E8045900006E0B4090D7D0F7F1D125F
:1015B00022667D067F1E8031900006E0F4702D903B
:1015C00000BDE070157D017F1D1222667D0E7F1E1D
:1015D0001222669000BD7401F022E49000BDF0FD7F
:0D15E0007F1C122266E4FD7F1F122266228E
:101BA1005E00740000000000000000000000000062
:101BB1000000000000000000000000000000000024
:091BC10000410092004100730094
:1022920090FF0E74C1F090FF0F7461F090FFA07474
:1022A20016F090FFA104F075CEFF75CDE675CC0651
:0922B200759E02759810D2AC2251
:0C250600C2AC8F993099FDC299D2AC2272
:03253E000225066D
:0B22390090000DEBF0A3EAF0A3E9F029
:10224400E4FEEEC39D501A90000DE0FBA3E0FAA358
:10225400E0F98E827583001205C7FF12253E0E80B9
:01226400E198
:012265002256
:102394009000087455F0A3EFF0A3EDF0A3740DF0D2
:0F23A400A3740AF07B017A0079087D05022239C3
:06252700AE07122506229A
:0300230002208137
:0D208100C0E0C083C082C0D075D000C00791
:10208E00E59830E030AF995398FE900092E01460DE
:10209E0019047021EFB4551D900074F0900072E099
:1020AE0004F09000927401F0800B900073EFF090AA
:0520BE0000927402F025
:0B20C300D007D0D0D082D083D0E03214
:101BCA004100B7004100AE004200AF00004100B141
:0F1BDA00004200B200004100B4014200B500001B
:10000E0090FF1D7461F090FF15F090FF16F090FFB9
:03001E0002F022CB
:101A0700E4900002F0A2A533900001F09000AEE050
:101A170014602614604E147003021AAA240360038C
:101A2700021AB3900001E06003021AB89000AFF009
:101A3700A3F09000AE04F08078900001E0706B9006
:101A470000B0E004F070069000AFE004F0C390002F
:101A5700B0E094039000AFE09400403E9000AE7475
:101A670002F08036900001E0B40106A37404F08010
:101A77003B9000B0E004F070069000AFE004F0C3C4
:101A87009000B0E094789000AFE09400400C900094
:101A9700027405F09000AE7403F07F0A7E001224F2
:101AA70074800E900001E0B401078000E49000AE5E
:061AB700F0900002E0FFC8
:011ABD002206
:101ABE00E4900002F0A2A633900001F09000B1E095
:101ACE0014602614604E147003021B61240360031D
:101ADE00021B6A900001E06003021B6F9000B2F0DF
:101AEE00A3F09000B104F08078900001E0706B904C
:101AFE0000B3E004F070069000B2E004F0C3900072
:101B0E00B3E094039000B2E09400403E9000B174B4
:101B1E0002F08036900001E0B40106A37404F08058
:101B2E003B9000B3E004F070069000B2E004F0C306
:101B3E009000B3E094F09000B2E09400400C90005E
:101B4E00027406F09000B17403F07F0A7E00122436
:101B5E0074800E900001E0B401078000E49000B1A3
:061B6E00F0900002E0FF10
:011B7400224E
:101E6500121A07BF05037F0122121ABEBF062112EF
:101E7500251BBF01149000A8E0700E9000B704F078
:101E85009000A8F012230A803CE49000B7F080355A
:101E95009000B4E0602330A60320B51D9000B7E0A4
:101EA50070177F32FE122474E49000B4F020A6036C
:101EB5007F032220B50F7F022230A60930B5069098
:101EC50000B47401F030A513D39000B6E0940190EE
:0D1ED50000B5E094004004E4F0A3F07F00AD
:011EE20022DD
:1016E1007365742074696D65207365636F6E643A08
:1016F10025640D0A0065786368616E67655F6865DA
:1017010061745F76616C7565200D0A0074696D65A1
:10171100207365636F6E643A2564200D0A00707250
:101721006F74656374200D0A0074696D65206F66BE
:1017310066200D0A0074696D655F746F5F302E3528
:1017410048202074696D655F7365633D2564200DD4
:101751000A0074696D655F746F5F31482020746998
:101761006D655F7365633D2564200D0A0074696DC5
:10177100655F746F5F3248202074696D655F7365C2
:10178100633D2564200D0A0074696D655F746F5FA8
:101791003448202074696D655F7365633D2564205D
:1017A1000D0A0074696D655F746F5F38482020749D
:0E17B100696D655F7365633D2564200D0A0058
:101BE90041009F0042009D00004200A10000410009
:101BF9009500410096004100A3004100A00041006A
:101C09009900420097000042009B000042009300A7
:051C19000041009A00EB
:1023EF0090009DEEF0A3EFF0E4A3F07BFF7A167957
:0C23FF00E1900045EEF0A3EFF002091998
:101EE300EFB40A00506E901EF0F8282873021F0EFC
:101EF300021F18021F1A021F1C021F26021F300294
:101F03001F3A021F44021F4E021F4E900093E4F03B
:101F1300A3741EF02280028000900093E4F0A37467
:101F23003CF022900093E4F0A3745AF022900093C3
:101F3300E4F0A37478F022900093E4F0A37496F095
:101F430022900093E4F0A374B4F022900093E4F0A1
:051F5300A374F0F02270
:10202F009000A4E0B40A00504890203FF82828738D
:10203F0002205D02205F02206602206802206A02F1
:10204F00206C02207302207A02207A02207A80000C
:10205F009000A07401F0228004800280009000A004
:10206F007402F0229000A07405F0229000A0740872
:02207F00F0224D
:1021CA00900099E0B40234900097E475F001120689
:1021DA005BFEC3900094E095F0900093E09E501B44
:1021EA007BFF7A1679F6120919E4900099F09000AB
:0C21FA0097F0A3F090009AF012202F2222
:101DDB00E490009FF09000A5E0FF700890009DF04C
:101DEB00A3F08052EFB4010C90009D7407F0A30494
:101DFB00F0E48042EFB4020D90009D740EF0A374DA
:101E0B0010F0E48031EFB4030D90009D741CF0A32F
:101E1B007420F0E48020EFB4040D90009D7438F032
:101E2B00A37440F0E4800FEFB4051790009D74701D
:101E3B00F0A37480F0E49000A1F0A3F090009BF06D
:101E4B00A3F07BFF7A17790D90009DE0FFA3E09044
:0A1E5B000045CFF0A3EFF0020919D3
:10248B00E490FE80F0F589758CF2758AFBC28DD2D3
:06249B00A9D28CD2AF2291
:03000B000212DB03
:1012DB00C0E0C0F0C083C082C0D075D000C000C0D9
:1012EB0001C002C003C004C005C006C00712251B05
:1012FB00EF60030213CF90009FE004F0E0C394640F
:10130B0050030213CF1221CA9000A3E0B4022D9018
:10131B0000A2E004F070069000A1E004F0D390006E
:10132B00A2E094209000A1E0941C40109000A3E454
:10133B00F09000A1F0A3F090009504F0D390009EE4
:10134B00E0940090009DE094004048A3E024FFF05F
:10135B0090009DE034FFF0900096E0640270609086
:10136B0000A2E004F070069000A1E004F0D390001E
:10137B00A2E094209000A1E0941C4043900095744F
:10138B0001F0A3E4F09000A1F0A3F07BFF7A1779B2
:10139B001F80299000A5E060267F01122521900077
:1013AB009DE4F0A3F09000A1F0A3F0900096F090D4
:1013BB0000A3F01223D17BFF7A17792A1209199017
:1013CB00009FE4F0D007D006D005D004D003D002A4
:0F13DB00D001D000D0D0D082D083D0F0D0E0327B
:101FC50090009BE475F00112065BFEE5F08EF012C1
:101FD50008541FEF07081FF70E101FFF1C202007CE
:101FE5003840200F70800000202E7BFF7A1779364D
:101FF500801E7BFF7A17795380167BFF7A17796EDF
:10200500800E7BFF7A17798980067BFF7A1779A482
:1020150090009DE0FFA3E0900045CFF0A3EFF01204
:0A2025000919E490009BF0A3F022DB
:041C1E004100BF00C2
:10245C007E009000BFE0FD7C00120881E47B64FAF2
:07246C00F9F81207318FDFC0
:012473002246
:1023520090FF0074C1F0E490FF9CF0AC06AD077EE4
:102362007A7F12120606EF149000BFF0F5DE75DDDB
:022372009722B0
:1024410090FF017401F090FF03F075B4807F147E5A
:0B245100001224DD90FE9B7449F02275
:1024A100E4FFFE75B50143B440E5B430E5FB53B438
:0524B100DFAEB7AFB67D
:0124B6002203
:1024B700E4FFFE75B50343B440E5B430E5FB53B420
:0524C700DFAEB7AFB667
:0124CC0022ED
:0B11AF00900006EBF0A3EAF0A3E9F0CB
:1011BA0090000C1207DD00000000E4900010F0F02F
:1011CA0090000CE0F8A3E0F9A3E0FAA3E0FB1224F4
:1011DA00A1E4FCFDEB2FFFEA3EFEED39FDEC38FC05
:1011EA0090000C1207D1900010E004F0E0C39405BF
:1011FA0040CE90000CE0FCA3E0FDA3E0FEA3E0FFDC
:10120A00E47B05FAF9F812073190000C1207D1E4D1
:10121A007F887E13FDFC90000CE0F8A3E0F9A3E0C0
:10122A00FAA3E0FB1206A6E4FB7A10F9F8120731DA
:10123A00900006E0FBA3E0FAA3E0F9EE8FF01206B5
:10124A008790000C1207DD00000000E4900010F007
:10125A0090000CE0F8A3E0F9A3E0FAA3E0FB122463
:10126A00B7E4FCFDEB2FFFEA3EFEED39FDEC38FC5E
:10127A0090000C1207D1900010E004F0E0C394052E
:10128A0040CE90000CE0FCA3E0FDA3E0FEA3E0FF4B
:10129A00E47B05FAF9F812073190000C1207D1E441
:1012AA007F887E13FDFC90000CE0F8A3E0F9A3E030
:1012BA00FAA3E0FB1206A6E4FB7A10F9F81207314A
:1012CA00900009E0FBA3E0FAA3E0F9EE8FF0020632
:0112DA00878C
:0D24F90075BD17EF75F02BA490FEA0F0222A
:0425370043BD10226E
:100026000202E1E86480F8E933E83360110460F025
:10003600ED33EC337009E8FCE9FDEAFEEBFF220440
:1000460060DED3EB9FEA9EE99DE8C2E78CF0C2F73B
:1000560095F0400CE8CCF8E9CDF9EACEFAEBCFFB07
:100066001202AC85D0F05804700320D5B3E80470B2
:10007600075002B2D50202EB92D5EC0460F7E4CC4D
:10008600C0E0C398F8603B94186008400DD0E0FBD0
:100096000202C3E4FBFAC9FC8028E830E406E4C99E
:1000A600FBE4CAFCE830E305E4C9CACBFCE8540724
:1000B6006010F8C3E913F9EA13FAEB13FBEC13FC2F
:1000C600D8F130F52FC3E49CFCEF9BFFEE9AFEEDD2
:1000D60099FDD0E0FBEF4E4D4C701222DB0302027D
:1000E600E8EC2CFCEF33FFEE33FEED33FDED30E7AD
:1000F600EB0202C3EF2BFFEE3AFEED39FDD0E0FB3B
:1001060050130BBB00030202EBED13FDEE13FEEFE3
:0801160013FFEC13FC0202C30D
:10011E000202EBEC5D046005E8590470030202E193
:10012E001202AC580460F6EC4860F2EC7004FDFE6E
:10013E00FF22C860DB2481C85009C39860025006B4
:10014E000202E89850CAF582E9294B4A7005AB8243
:10015E000202D775F0007C1A7880C3EF9BEE9AED01
:10016E0099400DC3EF9BFFEE9AFEED99FDE842F02C
:10017E00DC23ACF0D0E0FFD0E0FED0E0FDAB82207F
:10018E00E7101BEB60BAEC2CFCEF33FFEE33FEED09
:10019E0033FD0202C3E803F830E705C0F075F00046
:1001AE00EF2FFFEE33FEED33FD40B830E7C280AAED
:1001BE0074F8CC6480CCC86480C8F58204604FC3E8
:1001CE00EB9FF5F0EA9E42F0E99D42F0E89C45F087
:1001DE00603C501DE5825FFFE582D313CB5BCBF411
:1001EE002B5582FB50280ABA002409B9002008803A
:1001FE001DE5825BFBE582D313CF5FCFF4C3132FD4
:10020E005582FF50090EBE00050DBD00010CC3EB5B
:10021E009FF5F0EA9E42F0E99D42F0E89C45F060C1
:09022E0007CC4820E701B3EC22E3
:1002370075F020800E75F010800575F0087D007E42
:10024700007F003392D530D5031207C3EC3340103B
:10025700EF33FFEE33FEED33FDEC33FCD5F0ED224B
:0E026700E5F0247EA2D513CC92E7CDCEFF2287
:10027500EDD2E7CD33EC3392D524814006E4FFFE81
:10028500FDFC22FCE4CFCECDCC24E0501174FF80E0
:10029500EDC3CC13CCCD13CDCE13CECF13CF04707D
:0702A500F030D5DE0207C3B3
:1008AE00E50D2445F582E43400F583E0050D229034
:1008BE000042301003900045E475F00112080E025C
:1008CE0005AE2009E97F2ED2098018EF540F24902F
:1008DE00D43440D4FF300D0BEF24BFB41A005003B4
:1008EE002461FFE50E6002150E0511E5117002057B
:1008FE001030100E900042E475F00112080EEF0257
:10090E0005F40225277403D2108003E4C210F50DFE
:10091E00900042120825E4F50EF510F511E50E6073
:10092E00077F201208F180F5750FFFC20AC209C2B7
:10093E000BC20CC20EC20FC2111208BDFF700D30D9
:10094E0010057F00120902AF11AE1022B4255FC24E
:10095E00D5C20D1208BDFF24D0B40A00501A75F08E
:10096E000A780E30D50508B6FF0106C6A426F62075
:10097E00D5047002D20C80D924CFB41A00EF5004E3
:10098E00C2E5D20D020BF4D20A80C6D20980C0D2C3
:10099E000B80BCD2D580BAD20E80B47F201208F163
:1009AE00200B077401B50E0040F11208AEFF1208BD
:1009BE00F102092BD211D20F80951208AEFB12084C
:1009CE00AEFA1208AEF94A4B700679F27A0C7BFF3A
:1009DE00200B2EE50E602A7E008E82758300120596
:1009EE00C760060EEE650F70F0C2D5EBC0E0EAC030
:1009FE00E0E9C0E0EE120C55D0E0F9D0E0FAD0E01C
:100A0E00FB1205AEFF60AAEBC0E0EAC0E0E9C0E071
:100A1E001208F1D0E02401F9D0E03400FAD0E0FB66
:100A2E00E50F0460DCD50FD98087D20B80A2120CA3
:100A3E003760F7E50F7001041202F6A90F600DE59D
:100A4E000F600914F50F120CDFEF60F3EA30E702C6
:100A5E00F404C3995079EAF4250F0430E701E40455
:100A6E00F50F800D120C3760C1EA050F250F12022B
:100A7E00F6EA900071F030E701E4250F04D50F047B
:100A8E00200E0114120C55E4C0E0120CDF90007120
:100A9E00E0601320E70714F01208D9802204F0D08A
:100AAE00E014C0E07F001208D9E50F60071208D0ED
:100ABE00150F800B300E031208D0D0E002092BD098
:100ACE00E00480C4120C37609EE50F041202F6900B
:100ADE000071EAF0E50F200E026001042404120CEE
:010AEE0055B2
:100AEF0074FF04C0E0120CDF1208D9E50F200E02CC
:100AFF0060031208D0D0E0B50FE87F451208E390ED
:100B0F000071E07F2B30E7047F2DF404C0E0120862
:100B1F00F1D0E075F00A84C0F01208DAD0E01208C4
:100B2F00DA02092B791080027908C20FC2118008EE
:100B3F00D2D5790A8004790AC2D5E50F047002F57F
:100B4F000FE4FAFDFEFF1208AEFC7B08200A131219
:100B5F0008AEFD7B1030090A1208AEFE1208AEFF78
:100B6F007B20EC3382D592D55013C3E43009069F16
:100B7F00FFE49EFEE4200A039DFDE49CFCE4CBF819
:100B8F00C20AEC700CCFCECDCCE824F8F870F3800D
:100B9F0017C3EF33FFEE33FEED33FDEC33FCEB33D6
:100BAF00FB994002FB0FD8E9EB300A05F8D0E0C4FF
:100BBF0048B20AC0E00AEC4D4E4F78207B0070C25D
:100BCF00EAB50F0040BCC0E0120C57D0F0D0E020C7
:100BDF000A04C4C0E0C4B20AC0F01208DAD0F0D5DB
:100BEF00F0EB02092B12082E09C8530B3358099941
:100BFF004C0995420B374F0B3F440B3F4909AE430E
:100C0F000B45550A72460AD2450A3C470D12500948
:100C1F009D2D09A12E09C42B09A52309C2200CFB68
:100C2F002A095D48000009BCE50FB4FF03750F06E4
:100C3F001208AEFC1208AEFD1208AEFE1208AEFF8F
:100C4F0090006A020333790AA2D5200C14300E09E2
:100C5F00B910020404B9080104A2D5200F025001F3
:100C6F0004200B68920BB50E005034C0E07F20308B
:100C7F000C197F30A20B720F720E500F120CAEC2F6
:100C8F000BC20FC20EC2117F30800F300E03E9C0AE
:100C9F00E01208F1300E03D0E0F9D0E0B50ECC3001
:100CAF000E177F30B9100C1208F17F58300D077FE7
:100CBF00788003B908031208F1300B057F2D020865
:100CCF00F17F202011F87F2B200FF322920B80CF82
:100CDF007F00B40700500B246AF582E43400F583DB
:100CEF00E0FF22286E756C6C2900D20A1208AE3014
:100CFF000AF8C20A780E30D50108F602095D2D50A8
:100D0F004349581208AE2403B405004001E4900D86
:100D1F000D931208E2743A1208E2D20C750E040217
:020D2F000B3384
:1002AC00E9D2E7C933E833F892D5EDD2E7CD33EC98
:0702BC0033FC5002B2D52211
:1002C300EC30E7100FBF000C0EBE00080DBD00049C
:1002D3000BEB6014A2D5EB13FCED92E7FD2274FF48
:1002E300FCFDFEFF22E480F8A2D574FF13FC7D80A1
:0302F300E480EFB5
:1002F600F920E73624F950037907E4F42402FBE5F4
:1003060082158270021583DBF6E024FB501BE96040
:1003160014E4F0E582158270021583E004F0B40A55
:0D03260008E4F0D9EE7401F00A22C2D522DD
:10033300ED33EC3392D5FA602AB4FF33EDC2E77B99
:10034300FF60067A037958E4227A03796120D504A1
:100353007A03795C224E614E002B494E46002D49AB
:100363004E4600E47A08F0A3DAFC7B00740722C04F
:1003730083C082ECC0E0EDC0E0EEC0E0EFC0E0EA95
:1003830075F010A4CAABF075F04DA42BFBE435F067
:10039300FCEA2410FAEB34C5FBEC34D9FCEDC2E7DC
:1003A300FF75F056A4F42411C5F0F434C58FF0A4FE
:1003B3002AE5F03BE43CF020E71412056ED0E0FFA1
:1003C300D0E0FED0E0FDD0E0FC1201218014F40463
:1003D30012056ED0E0FFD0E0FED0E0FDD0E0FC12CD
:1003E3000438D082D083E0FAEDD2E7CD33EC332466
:1003F30082FBE4C3CF33CFCE33CECD33CD33DBF368
:100403007B0775F00A846004F0A31B0AE5F0F0A3F0
:100413008FF0740AA4FFACF08EF0740AA42CFEAC27
:10042300F050010C8DF0740AA42CFDE435F0F0A318
:05043300DBDE7407226E
:10043800EC4D6011E8497017ED33EC3304600DE4BE
:10044800FCFFFEFD22E933E8330470F80202E112F2
:1004580002AC58046009E4CC2481500628500902F3
:1004680002EB2840030202E8C0E0EB4A7044B9807E
:1004780006D0E0FB0202D7EF4E701CBD8008EBFFF0
:10048800EAFEE9FD80EBE98DF0A4FEE5F002052126
:10049800E9CDF9EAFEEBFFEF89F0A4FCE5F0CE899F
:1004A800F0A42EFFE435F0CD89F0A42DFEE435F05C
:1004B8008067EF4E7005BD80D780C3EF8BF0A4AC8A
:1004C800F0EE8BF0A42CFCE435F0F8EF8AF0A42CC5
:1004D800E5F038FCE433CB8DF0A42CFCE5F03BF8D8
:1004E800EE8AF0A42CFCE5F038F8E433CF89F0A4C8
:1004F8002CFCE5F038CF3400CE89F0A42FFFE5F0CE
:100508003EFEE433C98DF0A42EFEE5F039CD8AF025
:10051800A42FFFE5F03EFEE43DFD33D0E0FB50079D
:100528000BBB000F0202EBEC2CFCEF33FFEE33FEAB
:06053800ED33FD0202C3D9
:10053E003F8000004120000042C80000447A0000C5
:10054E00461C400047C35000497424004B18968047
:10055E004CBEBC205A0E1BCA6753C21C749DC5AE3E
:10056E00FB60065407601C232312059CEB54386075
:10057E0009120588120597120438ECF8EDF9EEFA17
:10058E00EFCB22EB12059780F1543803241C900513
:10059E003EFE93FC0EEE93FD0EEE930ECE93FF22D7
:101CD100021C23E493A3F8E493A34003F68001F2EA
:101CE10008DFF48029E493A3F85407240CC8C33314
:101CF100C4540F4420C8834004F456800146F6DFE3
:101D0100E4800B0102040810204080901B75E47EE2
:101D1100019360BCA3FF543F30E509541FFEE493D7
:101D2100A360010ECF54C025E060A840B8E493A39E
:101D3100FAE493A3F8E493A3C8C582C8CAC583CAC9
:101D4100F0A3C8C582C8CAC583CADFE9DEE780BE81
:011C220000C1
:1005AE00BB010689828A83E0225002E722BBFE024B
:0905BE00E32289828A83E493227E
:1005C700BB010CE58229F582E5833AF583E02250E9
:1005D70006E92582F8E622BBFE06E92582F8E22233
:0D05E700E58229F582E5833AF583E493224D
:1005F400BB010689828A83F0225002F722BBFE01E6
:02060400F322DF
:10060600BC000BBE0029EF8DF084FFADF022E4CCD8
:10061600F875F008EF2FFFEE33FEEC33FCEE9DECA1
:10062600984005FCEE9DFE0FD5F0E9E4CEFD22EDE7
:10063600F8F5F0EE8420D21CFEADF075F008EF2F31
:10064600FFED33FD4007985006D5F0F222C398FD22
:050656000FD5F0EA22BF
:10065B00C5F0F8A3E028F0C5F0F8E582158270022A
:06066B001583E038F022C7
:10067100A3F8E0C5F025F0F0E5821582700215833C
:06068100E0C838F0E82299
:10068700BB010A89828A83F0E5F0A3F0225006F7BE
:0F06970009A7F01922BBFE06F3E5F009F31922BB
:1006A600E88FF0A4CC8BF0A42CFCE98EF0A42CFCF3
:1006B6008AF0EDA42CFCEA8EF0A4CDA8F08BF0A471
:1006C6002DCC3825F0FDE98FF0A42CCD35F0FCEBD0
:1006D6008EF0A4FEA9F0EB8FF0A4CFC5F02ECD3995
:0F06E600FEE43CFCEAA42DCE35F0FDE43CFC2202
:1006F50075F008758200EF2FFFEE33FECD33CDCCBC
:1007050033CCC58233C5829BED9AEC99E58298403E
:100715000CF582EE9BFEED9AFDEC99FC0FD5F0D61B
:10072500E4CEFBE4CDFAE4CCF9A88222B800C1B945
:100735000059BA002DEC8BF084CFCECDFCE5F0CB83
:10074500F97818EF2FFFEE33FEED33FDEC33FCEBBC
:1007550033FB10D703994004EB99FB0FD8E5E4F977
:10076500FA227818EF2FFFEE33FEED33FDEC33FC64
:10077500C933C910D7059BE99A4007EC9BFCE99A58
:10078500F90FD8E0E4C9FAE4CCFB2275F010EF2F9D
:10079500FFEE33FEED33FDCC33CCC833C810D7079D
:1007A5009BEC9AE899400AED9BFDEC9AFCE899F8D8
:0E07B5000FD5F0DAE4CDFBE4CCFAE4C8F9226B
:0E07C300C3E49FFFE49EFEE49DFDE49CFC2247
:0C07D100ECF0A3EDF0A3EEF0A3EFF0229B
:1007DD00A8828583F0D083D0821207F41207F41219
:1007ED0007F41207F4E473E493A3C583C5F0C5833E
:1007FD00C8C582C8F0A3C583C5F0C583C8C582C866
:01080D0022C8
:10080E00F8E0FBA3A3E0F925F0F0E5821582700273
:07081E001583E0FA38F02217
:09082500EBF0A3EAF0A3E9F022D4
:10082E00D083D082F8E4937012740193700DA3A359
:10083E0093F8740193F5828883E47374029368606D
:06084E00EFA3A3A380DF6D
:10085400D083D082F8E4937012740193700DA3A333
:1008640093F8740193F5828883E473740293B5F06A
:0D087400067403936860E9A3A3A3A380D8D2
:10088100EC8EF0A4CCC5F0CCCDF8EFA4CEC5F02D04
:10089100FDE43CFCE8A42EC8C5F03DFDE43CFCEFC2
:0D08A100A4FFE5F028FEE43DFDE43CFC2250
:00000001FF
