:03000000021C5D82
:0C1C5D00787FE4F6D8FD758122021CA4FB
:101B1300206B65795F7363616E0D0A00204B455935
:101B23005F325F505245530D0A002564200D0A00B1
:101B33000D0A3D3D3D3D3D3D3D3D3D3D3D3D3D3D35
:101B43003D3D3D3D3D3D3D3D3D3D3D3D3D3D3D3DC2
:101B53003D3D3D3D0D0A00736B753A4B2564200DE9
:101B63000A00736F66742076657273696F6E3A2527
:101B730073200D0A00312E30302E30300067617033
:101B8300202564200D0A0074696D65722025642088
:101B93000D0A003D3D3D3D3D3D3D3D3D3D3D3D3D12
:101BA3003D3D3D3D3D3D3D3D3D3D3D3D3D3D3D3D62
:081BB3003D3D3D3D3D0D0A00E2
:101A65004200AE00004100B0004100AD004100ACB5
:011A75000070
:10246500758E5390FE917401F090FF027410F02266
:1015B700E4900000F09000ADE0700A121DFD90006D
:1015C70000EFF08005E4900000F0900000E0640177
:1015D70070489000ABE070427BFF7A1B79131209C9
:1015E700191224B3EF700D7F011224B9122369E495
:1015F700FF0223F4E4FF1224B9121D739000B074A4
:1016070001F0900098E0FF121E7B900098E0FF1217
:1016170014BA900099E0FF021CE91224B3EF6003AB
:101627000216AA900000E0640270507BFF7A1B79D3
:101637001F120919900098E0C394095005E004F0BF
:1016470080069000987401F0900098E0FFD394030F
:101657004016A3E0FE70059000978009EED394032F
:10166700400690008A7402F09000B07401F0121ED8
:101677007B900098E0FF1214BA8025900000E0B438
:101687000321900099E0C394055005E004F080051C
:10169700E4900099F0900099E0FF121CE9121D7385
:0316A7001222A26A
:0116AA00221D
:08178900900006EEF0A3EFF062
:10179100900086E06402706A9000ABE064017062C0
:1017A100900006A3E0FFE4900086F090009C04F016
:1017B100900067E0FED3940F4048EED39F400CE0C9
:1017C1009F90009AF0A37401F08016900067E0FEEC
:1017D100C3EF9EFF90009AF012249E90009B74022A
:1017E100F090009AE0FFC394024006EFD3941440B6
:1017F10007E490009AF0A3F01222A27D027F021268
:10180100232C90009BE0FDB4011490009AE0FF7E30
:1018110000900006EE8FF012065BAFF0FE22EDB4F1
:10182100021890009AE0FFC3900007E09FFF90002C
:1018310006E09400FEF0A3EFF022900006E0FEA384
:02184100E0FFC6
:011843002282
:100D3100900008ECF0A3EDF0900006EEF0FAA3EFBE
:020D4100F0FBC5
:100D4300E490000AF0A3F0A3F0A37414F0A3120735
:100D5300DD00000000C3EB9432EA940040169000DB
:100D630008E0FEA3E0FF900006E0FCA3E0FDD39FB4
:100D7300EC9E4003020E0AE412023CE4FBFA797A89
:100D83007844120121C004C005C006C007900008C2
:100D9300E0FCA3E0FDE412023CE4FBFA797A784438
:100DA300120121D003D002D001D000120029C004C7
:100DB300C005C006C007900006E0FCA3E0FDE412F6
:100DC300023CE4FBFA797A7844120121E4FBFA79D4
:100DD300FF7843120121A804A905AA06AB07D0078F
:100DE300D006D005D00412012190000E1207D1E4E1
:100DF300FFFEFDFC90000EE0F8A3E0F9A3E0FAA3E8
:100E0300E0FB1201BE50057E007FFF22E4FFFE7D62
:100E1300E17C4390000EE0F8A3E0F9A3E0FAA3E03D
:100E2300FB1201BE5004E4FEFF22E4FFFE7DFA7CC8
:100E33004390000EE0F8A3E0F9A3E0FAA3E0FB126D
:100E430001BE6050404EE4FFFE7DFA7CC390000E6D
:100E5300E0F8A3E0F9A3E0FAA3E0FB12002D1202ED
:100E63007590000AEEF0A3EFF0FDAC06E412023C2D
:100E73007B717A3D790A7840120121120275900044
:100E83000AEEF0A3EFF090000DE02FF090000CE0DD
:100E93003EF0806690000EE0F8A3E0F9A3E0FAA329
:100EA300E0FBE4FFFE7DFA7C4312002912027590F9
:100EB300000AEEF0A3EFF0FDAC06E412023C7B71F6
:100EC3007A3D790A784012012112027590000AEEE8
:100ED300F0A3EFF0D39414EE9400400990000AE4D9
:100EE300F0A37414F090000AE0FEA3E0FFC39000A7
:100EF3000DE09FF090000CE09EF090000CE0FEA34C
:020F0300E0FF0D
:010F050022C9
:10104500E4900000F0A3F0A3F0A3F0A3F0A3F090C8
:1010550000AFE004F070069000AEE004F0D390001D
:10106500AFE094109000AEE094275003021178E4AD
:10107500F0A3F07B0190000904F0A37400F0A374C1
:1010850004F07A007902121179900002E0FEA3E0E3
:10109500FFA3E0FCA3E0FD120D31900000EEF0A3EC
:1010A500EFF0121789900000EEF0A3EFF07BFF7AC6
:1010B5001B792D900039EEF0A3EFF0120919D390AA
:1010C5000003E09432900002E094005003021157AF
:1010D5001224B3EF704D9000B0E0B40129E4F0D3D1
:1010E500900001E09432900000E0940090008D742F
:1010F500024009F09000947408F0800AF090008E88
:1011050014F0900094F0900099E0FF121CE9900013
:1011150098E0FF1214BA900000E0FEA3E0FF121958
:10112500B280299000ABE0B40118E4FF1223F41259
:101135002369900098E0FF1214BA9000B27401F090
:10114500800AE4FF1223F47F041223BEE49000AD6D
:10115500F022E49000ABF09000B2F0122369E4FFB6
:101165001223F49000AC74FFF0FF1214BA9000AD96
:031175007401F012
:011178002254
:101BBB0012246512222A1223D9D2AF12000E12243C
:101BCB0023120F067FC87E001222EA12227B7F208F
:101BDB007E0312240C7F02122491E4FF1223F47B68
:101BEB00FF7A1B79331209197BFF7A1B795A900004
:101BFB00397423F0A3743AF012091990003974FF69
:101C0B00F0A3741BF0A37478F07BFF7A1B79651239
:101C1B0009197BFF7A1B7980900098E0FF900039BF
:101C2B00E4F0A3EFF01209197BFF7A1B798A90007D
:101C3B0099E0FF900039E4F0A3EFF01209197BFF54
:101C4B007A1B79961209191215B71210451224CF67
:021C5B0080F512
:10212400900008EEF0A3EFF0A3ECF0A3EDF0D39F42
:10213400EC9E4004E4FF8022900094E0FFC39000F2
:1021440009E09FFF900008E09400FEC390000BE0BC
:0E2154009F90000AE09E50057F0A1223F4229D
:1019B200900006EEF0A3EFF090008EE0B401030277
:1019C2001A55900098E0B40A004003021A64901974
:1019D200D7F82828730219F5021A01021A0D021A01
:1019E20019021A25021A31021A3D021A49021A492B
:1019F200021A55900006E0FCA3E0FD7F1E805E9077
:101A02000006E0FCA3E0FD7F2B8052900006E0FC84
:101A1200A3E0FD7F2F8046900006E0FCA3E0FD7F5F
:101A220031803A900006E0FCA3E0FD7F36802E90E4
:101A32000006E0FCA3E0FD7F3C8022900006E0FC73
:101A4200A3E0FD7F418016900006E0FCA3E0FD7F4D
:101A520046800A900006E0FCA3E0FD7F507E001263
:031A62002124221A
:10230C00900089E0B40118900098E0D39403400F3A
:10231C007403F0FF1214BA1222A2E4900089F02286
:1013B4000D0A3D3D3D3D3D3D3D3D3D3D3D3D3D3DBC
:1013C4003D3D3D3D3D3D3D3D3D3D3D3D3D3D3D3D49
:1013D4003D3D3D3D3D3D3D3D3D3D0D0A00706F773A
:1013E4006572206F6E20666C617368206761703A65
:1013F4002564202074696D65723A2564200D0A0005
:10140400706F776572206F6E20666C6173682076EA
:10141400616C75653A256420207369676E3A2564AA
:10142400200D0A003D3D3D3D3D3D3D3D3D3D3D3DA5
:101434003D3D3D3D3D3D3D3D3D3D3D3D3D3D3D3DD8
:101444003D3D3D3D3D3D3D3D3D3D3D3D0D0A003D68
:101454003D3D3D3D3D3D3D3D3D3D3D3D66697273F8
:101464007420696E697420646174613D3D3D3D3D45
:101474003D3D3D3D3D3D200D0A003078253034583A
:1014840020203078253034582020307825303458C6
:101494002020307825303458200D0A00666C6173A2
:1014A40068206761703A2564202074696D65723A1A
:0614B4002564200D0A0072
:101A7600450098000000000044009D20200501411B
:031A860000A101BB
:0624B3009000A1E0FF22F1
:0624B9009000A1EFF022EB
:1022C800D310AF01C3C0D075FDF075FC0F8EFA8F27
:1022D800F975FDD275FC2D75FDE175FC1ED0D09207
:0222E800AF2223
:10225300D310AF01C3C0D08FFB75FDF075FC0FAE7B
:1022630004AF058EFA8FF975FDB475FC4B75FDE16E
:0822730075FC1ED0D092AF22D1
:0C1EF0007B017A0079987D057F047E3C20
:101EFC00D310AF01C3C0D0900008EEF0A3EFF0A355
:0B1F0C00EDF0A3EBF0A3EAF0A3E9F076
:101F1700E4A3F0C2AFF090000AE0FF90000EE0C328
:101F27009F502C90000BE0FBA3E475F001120671A3
:101F3700A9F0FA1205AEFF900008E475F001120649
:101F470071ADF0FC12225390000EE004F080C7D26E
:011F5700AFDA
:051F5800D0D092AF2281
:040003008F828E83D7
:03000700E493FF80
:01000A0022D3
:10206600900008EEF0A3EFF0A3EBF0A3EAF0A3E9EB
:10207600F0AF051DEF6028900008E475F001120628
:102086007185F082F583E493FF90000AE0FBA3E4F8
:1020960075F001120671A9F0FAEF1205F480D2224A
:10219E00E4FDFCED2400FFE4343CFE120003749DCC
:1021AE002DF582E43400F583E0B507030C80037F40
:1021BE0000220DEDB404DCECC3940440037F012235
:0221CE007F0090
:0121D00022EC
:100F0600E4900000F090FE927404F012219EEF70BF
:100F16000790000004F0807C7BFF7A1379B41209F5
:100F2600197B017A0079987D057F047E3C12206644
:100F36007BFF7A1379E1900098E0FF900039E4F0A6
:100F4600A3EFF0900099E0FF90003BE4F0A3EFF0F0
:100F56001209197BFF7A14790490009AE0FF900039
:100F660039E4F0A3EFF090009BE0FF90003BE4F043
:100F7600A3EFF01209197BFF7A1479281209199048
:100F86000098E0D394095006A3E09405400690002B
:100F9600007401F0900000E0640160030210227BFF
:100FA600FF7A1479531209199000987401F0A3740A
:100FB60003F07F007E3C1222C87B017A00799D7D7A
:100FC60004121EFC121EF07B017A00799D7D047FBF
:100FD600007E3C1220667BFF7A14797E90009DE0AD
:100FE600FF900039E4F0A3EFF090009EE0FF900040
:100FF6003BE4F0A3EFF090009FE0FF90003DE4F0AB
:10100600A3EFF09000A0E0FF90003FE4F0A3EFF024
:101016001209197BFF7A1479281209197BFF7A14B1
:1010260079A0900098E0FF900039E4F0A3EFF090EB
:0F1036000099E0FF90003BE4F0A3EFF0020919EE
:1022A2007F047E3C1222C87B017A00799D7D047FE7
:1022B20000121EFC121EF07B017A0079987D057FC8
:0622C200047E3C022066D0
:0E247500EF1F70011E144E6004000080F32261
:10240C007DA07C01ED1D70011C144C70F7EF1F704A
:06241C00011E144E70EADF
:012422002297
:0324D3000224756B
:1023A30090FF0974C1F090FF08F090FF07F090FFD1
:0B23B30006F0D291D290D287D2862291
:0820A600900039EFF0A3EDF00A
:1020AE00E4A3F0F090003AE0FFA3E0C39F5027C2F4
:1020BE0087900039E020E704C2868002D286D2875C
:1020CE007F057E001224D3900039E025E0F09000C9
:0620DE003BE004F080CE9F
:0120E40022D9
:0820E500900039EFF0A3EDF0CB
:1020ED00E4A3F0F090003AE0FFA3E0C39F5027C2B5
:1020FD0087900039E020E004C2868002D286D28724
:10210D007F057E001224D3900039E0C313F09000B8
:06211D003BE004F080CE5F
:012123002299
:1023BE00900007EFF0C2917D047F801220A690005E
:0B23CE0007E0FF7D081220A6D291223C
:1021FE00900037EFF0A3EDF0C2917D037FA0122087
:10220E00A6900037E025E025E0FF7D061220A6907F
:0C221E000038E0FF7D041220E5D2912280
:0924AA00D291D290D287D2862291
:081A89004100B1004100B20070
:0524C5007F060223BEAA
:0524CA007F040223BEA7
:10234B00E4900000F0F0900000E0FFC39420500DEB
:0D235B007D0F1221FE900000E004F080E9EB
:012368002252
:10236900E4900036F0F0900036E0FFC39420500D61
:0D237900E4FD1221FE900036E004F080E942
:012386002234
:10227B001223A37F521223BE7F301223BE7F0A127A
:10228B0023BE7F081223BE7F021223BE7F061223BA
:07229B00BE12236902234B70
:0E248300E4FD7F1C1221FEE4FD7F1F0221FEFE
:101CE900900006EFF07F061223BEE4FD7F1F12214C
:101CF900FEE4FD7F1C1221FE900006E014601B1417
:101D0900602314602B14603A1460492405705A7DCD
:101D19000A7F1B1221FE7D0E80317D0B7F1B122154
:101D2900FE7D0A80267D0E7F1B1221FE7D0A801B07
:101D39007D0A7F1B1221FE7D0A7F1C1221FE7D0B6D
:101D490080227D0A7F1B1221FE7D0B7F1C1221FE42
:101D59007D0A80107D0A7F1B1221FE7D0A7F1C12DD
:0A1D690021FE7D0E7F1F1221FE22D5
:1014BA00900006EFF07F061223BEE4FD7F1D122185
:1014CA00FEE4FD7F1E1221FE9000B2E06401700E60
:1014DA009000B1E070057D060215910215A49000F6
:1014EA0006E0B401047D068063900006E0B4020BB6
:1014FA007D0B7F1D1221FE7D0C8065900006E0B4F5
:10150A00030B7D0F7F1D1221FE7D04805390000680
:10151A00E0B4040B7D067F1D1221FE7D06804190FA
:10152A000006E0B4050B7D0D7F1D1221FE7D0680AD
:10153A002F900006E0B4060B7D0D7F1D1221FE7D63
:10154A000E801D900006E0B407067D077F1D8059B6
:10155A00900006E0B4080D7D0F7F1D1221FE7D0E5E
:10156A007F1E8045900006E0B4090D7D0F7F1D1295
:10157A0021FE7D067F1E8031900006E0F4702D90DA
:10158A0000B1E070157D017F1D1221FE7D0E7F1EC8
:10159A001221FE9000B17401F022E49000B1F0FD36
:0D15AA007F1C1221FEE4FD7F1F1221FE2296
:101A91005E0068000000000000000000000000007F
:101AA1000000000000000000000000000000000035
:091AB100004100860041006700BD
:10222A0090FF0E74C1F090FF0F7461F090FFA074DC
:10223A0016F090FFA104F075CEFF75CDE675CC06B9
:09224A00759E02759810D2AC22B9
:0C249E00C2AC8F993099FDC299D2AC22DB
:0324D60002249E3F
:0B21D10090000DEBF0A3EAF0A3E9F092
:1021DC00E4FEEEC39D501A90000DE0FBA3E0FAA3C1
:1021EC00E0F98E827583001205C7FF1224D60E808B
:0121FC00E101
:0121FD0022BF
:10232C009000087455F0A3EFF0A3EDF0A3740DF03A
:0F233C00A3740AF07B017A0079087D050221D194
:0624BF00AE0712249E226C
:030023000220199F
:0D201900C0E0C083C082C0D075D000C007F9
:10202600E59830E030AF995398FE900086E0146052
:1020360019047021EFB4551D900068F0900066E019
:1020460004F09000867401F0800B900067EFF0902A
:0520560000867402F099
:0B205B00D007D0D0D082D083D0E0327C
:101ABA004100AB004100A2004200A300004100A582
:0F1ACA00004200A600004100A8014200A9000050
:10000E0090FF1D7461F090FF15F090FF16F090FFB9
:03001E0002F022CB
:10184400E4900002F0A2A533900001F09000A2E021
:1018540014602614604E1470030218E72403600316
:101864000218F0900001E060030218F59000A3F064
:10187400A3F09000A204F08078900001E0706B90D7
:1018840000A4E004F070069000A3E004F0C390000C
:10189400A4E094039000A3E09400403E9000A2745E
:1018A40002F08036900001E0B40106A37404F080D5
:1018B4003B9000A4E004F070069000A3E004F0C3A1
:1018C4009000A4E094789000A3E09400400C900071
:1018D400027405F09000A27403F07F0A7E001224C3
:1018E4000C800E900001E0B401078000E49000A297
:0618F400F0900002E0FF8D
:0118FA0022CB
:1018FB00E4900002F0A2A633900001F09000A5E066
:10190B0014602614604E14700302199E24036003A6
:10191B000219A7900001E060030219AC9000A6F039
:10192B00A3F09000A504F08078900001E0706B901C
:10193B0000A7E004F070069000A6E004F0C390004E
:10194B00A7E094039000A6E09400403E9000A5749D
:10195B0002F08036900001E0B40106A37404F0801D
:10196B003B9000A7E004F070069000A6E004F0C3E3
:10197B009000A7E094F09000A6E09400400C90003B
:10198B00027406F09000A57403F07F0A7E00122407
:10199B000C800E900001E0B401078000E49000A5DC
:0619AB00F0900002E0FFD5
:0119B1002213
:101DFD00121844BF05037F01221218FBBF062112E2
:101E0D0024B3BF011490009CE0700E9000AB04F061
:101E1D0090009CF01222A2803CE49000ABF0803543
:101E2D009000A8E0602330A60320B51D9000ABE024
:101E3D0070177F32FE12240CE49000A8F020A60348
:101E4D007F032220B50F7F022230A60930B5069000
:101E5D0000A87401F030A513D39000AAE09401906E
:0D1E6D0000A9E094004004E4F0A3F07F0021
:011E7A002245
:1016AB007365742074696D65207365636F6E643A3E
:1016BB0025640D0A0065786368616E67655F686510
:1016CB0061745F76616C7565200D0A0074696D65D8
:1016DB00207365636F6E643A2564200D0A00707287
:1016EB006F74656374200D0A0074696D65206F66F5
:1016FB0066200D0A0074696D655F746F5F302E355F
:10170B0048202074696D655F7365633D2564200D0A
:10171B000A0074696D655F746F5F314820207469CE
:10172B006D655F7365633D2564200D0A0074696DFB
:10173B00655F746F5F3248202074696D655F7365F8
:10174B00633D2564200D0A0074696D655F746F5FDE
:10175B003448202074696D655F7365633D25642093
:10176B000D0A0074696D655F746F5F3848202074D3
:0E177B00696D655F7365633D2564200D0A008E
:101AD900410093004200910000420095000041003E
:101AE900890041008A0041009700410094004100AB
:101AF9008D0042008B000042008F000042008700E9
:051B09000041008E0008
:10238700900091EEF0A3EFF0E4A3F07BFF7A1679CB
:0C239700AB900039EEF0A3EFF002091942
:101E7B00EFB40A00506E901E88F8282873021EA635
:101E8B00021EB0021EB2021EB4021EBE021EC80209
:101E9B001ED2021EDC021EE6021EE6900087E4F054
:101EAB00A3741EF02280028000900087E4F0A374DC
:101EBB003CF022900087E4F0A3745AF02290008744
:101ECB00E4F0A37478F022900087E4F0A37496F00A
:101EDB0022900087E4F0A374B4F022900087E4F022
:051EEB00A374F0F022D9
:101FC700900098E0B40A005048901FD7F82828736B
:101FD700021FF5021FF7021FFE0220000220020265
:101FE700200402200B02201202201202201280007D
:101FF7009000947401F02280048002800090009485
:102007007402F0229000947405F0229000947408F2
:02201700F022B5
:1021620090008DE0B4023490008BE475F001120609
:102172005BFEC3900088E095F0900087E09E501BC4
:102182007BFF7A1679C0120919E490008DF0900055
:0C2192008BF0A3F090008EF0121FC7220B
:101D7300E4900093F0900099E0FF7008900091F0D8
:101D8300A3F08052EFB4010C9000917407F0A30408
:101D9300F0E48042EFB4020D900091740EF0A3744E
:101DA30010F0E48031EFB4030D900091741CF0A3A4
:101DB3007420F0E48020EFB4040D9000917438F0A7
:101DC300A37440F0E4800FEFB40517900091747092
:101DD300F0A37480F0E4900095F0A3F090008FF0EE
:101DE300A3F07BFF7A1679D7900091E0FFA3E090F0
:0A1DF3000039CFF0A3EFF002091948
:10242300E490FE80F0F589758CF2758AFBC28DD23B
:06243300A9D28CD2AF22F9
:03000B000212A539
:1012A500C0E0C0F0C083C082C0D075D000C000C00F
:1012B50001C002C003C004C005C006C0071224B3A4
:1012C500EF6003021399900093E004F0E0C3946487
:1012D5005003021399122162900097E0B4022D90F9
:1012E5000096E004F07006900095E004F0D39000BD
:1012F50096E09420900095E0941C4010900097E4AF
:10130500F0900095F0A3F090008904F0D39000923E
:10131500E09400900091E094004048A3E024FFF0A1
:10132500900091E034FFF090008AE06402706090D4
:101335000096E004F07006900095E004F0D390006C
:1013450096E09420900095E0941C404390008974A9
:1013550001F0A3E4F0900095F0A3F07BFF7A1679F5
:10136500E98029900099E060267F011224B9900058
:1013750091E4F0A3F0900095F0A3F090008AF0902E
:101385000097F01223697BFF7A1679F412091990F8
:101395000093E4F0D007D006D005D004D003D002E6
:0F13A500D001D000D0D0D082D083D0F0D0E032B1
:101F5D0090008FE475F00112065BFEE5F08EF01235
:101F6D0008541F8707081F8F0E101F971C201F9FD7
:101F7D0038401FA7708000001FC67BFF7A177900BD
:101F8D00801E7BFF7A17791D80167BFF7A177938B3
:101F9D00800E7BFF7A17795380067BFF7A17796E57
:101FAD00900091E0FFA3E0900039CFF0A3EFF01285
:0A1FBD000919E490008FF0A3F02250
:041B0E004100B300DF
:1023F4007E009000B3E0FD7C00120881E47B64FA67
:07240400F9F81207318FDF28
:01240B0022AE
:1022EA0090FF0074C1F0E490FF9CF0AC06AD077E4D
:1022FA007A7F12120606EF149000B3F0F5DE75DD50
:02230A00972218
:1023D90090FF017401F090FF03F075B4807F147EC3
:0B23E9000012247590FE9B7449F02246
:10243900E4FFFE75B50143B440E5B430E5FB53B4A0
:05244900DFAEB7AFB6E5
:01244E00226B
:10244F00E4FFFE75B50343B440E5B430E5FB53B488
:05245F00DFAEB7AFB6CF
:012464002255
:0B117900900006EBF0A3EAF0A3E9F001
:1011840090000C1207DD00000000E4900010F0F065
:1011940090000CE0F8A3E0F9A3E0FAA3E0FB12242A
:1011A40039E4FCFDEB2FFFEA3EFEED39FDEC38FCA3
:1011B40090000C1207D1900010E004F0E0C39405F5
:1011C40040CE90000CE0FCA3E0FDA3E0FEA3E0FF12
:1011D400E47B05FAF9F812073190000C1207D1E408
:1011E4007F887E13FDFC90000CE0F8A3E0F9A3E0F7
:1011F400FAA3E0FB1206A6E4FB7A10F9F812073111
:10120400900006E0FBA3E0FAA3E0F9EE8FF01206EB
:101214008790000C1207DD00000000E4900010F03D
:1012240090000CE0F8A3E0F9A3E0FAA3E0FB122499
:101234004FE4FCFDEB2FFFEA3EFEED39FDEC38FCFC
:1012440090000C1207D1900010E004F0E0C3940564
:1012540040CE90000CE0FCA3E0FDA3E0FEA3E0FF81
:10126400E47B05FAF9F812073190000C1207D1E477
:101274007F887E13FDFC90000CE0F8A3E0F9A3E066
:10128400FAA3E0FB1206A6E4FB7A10F9F812073180
:10129400900009E0FBA3E0FAA3E0F9EE8FF0020668
:0112A40087C2
:0D24910075BD17EF75F02BA490FEA0F02292
:0424CF0043BD1022D7
:100026000202E1E86480F8E933E83360110460F025
:10003600ED33EC337009E8FCE9FDEAFEEBFF220440
:1000460060DED3EB9FEA9EE99DE8C2E78CF0C2F73B
:1000560095F0400CE8CCF8E9CDF9EACEFAEBCFFB07
:100066001202AC85D0F05804700320D5B3E80470B2
:10007600075002B2D50202EB92D5EC0460F7E4CC4D
:10008600C0E0C398F8603B94186008400DD0E0FBD0
:100096000202C3E4FBFAC9FC8028E830E406E4C99E
:1000A600FBE4CAFCE830E305E4C9CACBFCE8540724
:1000B6006010F8C3E913F9EA13FAEB13FBEC13FC2F
:1000C600D8F130F52FC3E49CFCEF9BFFEE9AFEEDD2
:1000D60099FDD0E0FBEF4E4D4C701222DB0302027D
:1000E600E8EC2CFCEF33FFEE33FEED33FDED30E7AD
:1000F600EB0202C3EF2BFFEE3AFEED39FDD0E0FB3B
:1001060050130BBB00030202EBED13FDEE13FEEFE3
:0801160013FFEC13FC0202C30D
:10011E000202EBEC5D046005E8590470030202E193
:10012E001202AC580460F6EC4860F2EC7004FDFE6E
:10013E00FF22C860DB2481C85009C39860025006B4
:10014E000202E89850CAF582E9294B4A7005AB8243
:10015E000202D775F0007C1A7880C3EF9BEE9AED01
:10016E0099400DC3EF9BFFEE9AFEED99FDE842F02C
:10017E00DC23ACF0D0E0FFD0E0FED0E0FDAB82207F
:10018E00E7101BEB60BAEC2CFCEF33FFEE33FEED09
:10019E0033FD0202C3E803F830E705C0F075F00046
:1001AE00EF2FFFEE33FEED33FD40B830E7C280AAED
:1001BE0074F8CC6480CCC86480C8F58204604FC3E8
:1001CE00EB9FF5F0EA9E42F0E99D42F0E89C45F087
:1001DE00603C501DE5825FFFE582D313CB5BCBF411
:1001EE002B5582FB50280ABA002409B9002008803A
:1001FE001DE5825BFBE582D313CF5FCFF4C3132FD4
:10020E005582FF50090EBE00050DBD00010CC3EB5B
:10021E009FF5F0EA9E42F0E99D42F0E89C45F060C1
:09022E0007CC4820E701B3EC22E3
:1002370075F020800E75F010800575F0087D007E42
:10024700007F003392D530D5031207C3EC3340103B
:10025700EF33FFEE33FEED33FDEC33FCD5F0ED224B
:0E026700E5F0247EA2D513CC92E7CDCEFF2287
:10027500EDD2E7CD33EC3392D524814006E4FFFE81
:10028500FDFC22FCE4CFCECDCC24E0501174FF80E0
:10029500EDC3CC13CCCD13CDCE13CECF13CF04707D
:0702A500F030D5DE0207C3B3
:1008AE00E50D2439F582E43400F583E0050D229040
:1008BE000036301003900039E475F00112080E0274
:1008CE0005AE2009E97F2ED2098018EF540F24902F
:1008DE00D43440D4FF300D0BEF24BFB41A005003B4
:1008EE002461FFE50E6002150E0511E5117002057B
:1008FE001030100E900036E475F00112080EEF0263
:10090E0005F40224BF7403D2108003E4C210F50D67
:10091E00900036120825E4F50EF510F511E50E607F
:10092E00077F201208F180F5750FFFC20AC209C2B7
:10093E000BC20CC20EC20FC2111208BDFF700D30D9
:10094E0010057F00120902AF11AE1022B4255FC24E
:10095E00D5C20D1208BDFF24D0B40A00501A75F08E
:10096E000A780E30D50508B6FF0106C6A426F62075
:10097E00D5047002D20C80D924CFB41A00EF5004E3
:10098E00C2E5D20D020BF4D20A80C6D20980C0D2C3
:10099E000B80BCD2D580BAD20E80B47F201208F163
:1009AE00200B077401B50E0040F11208AEFF1208BD
:1009BE00F102092BD211D20F80951208AEFB12084C
:1009CE00AEFA1208AEF94A4B700679F27A0C7BFF3A
:1009DE00200B2EE50E602A7E008E82758300120596
:1009EE00C760060EEE650F70F0C2D5EBC0E0EAC030
:1009FE00E0E9C0E0EE120C55D0E0F9D0E0FAD0E01C
:100A0E00FB1205AEFF60AAEBC0E0EAC0E0E9C0E071
:100A1E001208F1D0E02401F9D0E03400FAD0E0FB66
:100A2E00E50F0460DCD50FD98087D20B80A2120CA3
:100A3E003760F7E50F7001041202F6A90F600DE59D
:100A4E000F600914F50F120CDFEF60F3EA30E702C6
:100A5E00F404C3995079EAF4250F0430E701E40455
:100A6E00F50F800D120C3760C1EA050F250F12022B
:100A7E00F6EA900065F030E701E4250F04D50F0487
:100A8E00200E0114120C55E4C0E0120CDF9000652C
:100A9E00E0601320E70714F01208D9802204F0D08A
:100AAE00E014C0E07F001208D9E50F60071208D0ED
:100ABE00150F800B300E031208D0D0E002092BD098
:100ACE00E00480C4120C37609EE50F041202F6900B
:100ADE000065EAF0E50F200E026001042404120CFA
:010AEE0055B2
:100AEF0074FF04C0E0120CDF1208D9E50F200E02CC
:100AFF0060031208D0D0E0B50FE87F451208E390ED
:100B0F000065E07F2B30E7047F2DF404C0E012086E
:100B1F00F1D0E075F00A84C0F01208DAD0E01208C4
:100B2F00DA02092B791080027908C20FC2118008EE
:100B3F00D2D5790A8004790AC2D5E50F047002F57F
:100B4F000FE4FAFDFEFF1208AEFC7B08200A131219
:100B5F0008AEFD7B1030090A1208AEFE1208AEFF78
:100B6F007B20EC3382D592D55013C3E43009069F16
:100B7F00FFE49EFEE4200A039DFDE49CFCE4CBF819
:100B8F00C20AEC700CCFCECDCCE824F8F870F3800D
:100B9F0017C3EF33FFEE33FEED33FDEC33FCEB33D6
:100BAF00FB994002FB0FD8E9EB300A05F8D0E0C4FF
:100BBF0048B20AC0E00AEC4D4E4F78207B0070C25D
:100BCF00EAB50F0040BCC0E0120C57D0F0D0E020C7
:100BDF000A04C4C0E0C4B20AC0F01208DAD0F0D5DB
:100BEF00F0EB02092B12082E09C8530B3358099941
:100BFF004C0995420B374F0B3F440B3F4909AE430E
:100C0F000B45550A72460AD2450A3C470D12500948
:100C1F009D2D09A12E09C42B09A52309C2200CFB68
:100C2F002A095D48000009BCE50FB4FF03750F06E4
:100C3F001208AEFC1208AEFD1208AEFE1208AEFF8F
:100C4F0090005E020333790AA2D5200C14300E09EE
:100C5F00B910020404B9080104A2D5200F025001F3
:100C6F0004200B68920BB50E005034C0E07F20308B
:100C7F000C197F30A20B720F720E500F120CAEC2F6
:100C8F000BC20FC20EC2117F30800F300E03E9C0AE
:100C9F00E01208F1300E03D0E0F9D0E0B50ECC3001
:100CAF000E177F30B9100C1208F17F58300D077FE7
:100CBF00788003B908031208F1300B057F2D020865
:100CCF00F17F202011F87F2B200FF322920B80CF82
:100CDF007F00B40700500B245EF582E43400F583E7
:100CEF00E0FF22286E756C6C2900D20A1208AE3014
:100CFF000AF8C20A780E30D50108F602095D2D50A8
:100D0F004349581208AE2403B405004001E4900D86
:100D1F000D931208E2743A1208E2D20C750E040217
:020D2F000B3384
:1002AC00E9D2E7C933E833F892D5EDD2E7CD33EC98
:0702BC0033FC5002B2D52211
:1002C300EC30E7100FBF000C0EBE00080DBD00049C
:1002D3000BEB6014A2D5EB13FCED92E7FD2274FF48
:1002E300FCFDFEFF22E480F8A2D574FF13FC7D80A1
:0302F300E480EFB5
:1002F600F920E73624F950037907E4F42402FBE5F4
:1003060082158270021583DBF6E024FB501BE96040
:1003160014E4F0E582158270021583E004F0B40A55
:0D03260008E4F0D9EE7401F00A22C2D522DD
:10033300ED33EC3392D5FA602AB4FF33EDC2E77B99
:10034300FF60067A037958E4227A03796120D504A1
:100353007A03795C224E614E002B494E46002D49AB
:100363004E4600E47A08F0A3DAFC7B00740722C04F
:1003730083C082ECC0E0EDC0E0EEC0E0EFC0E0EA95
:1003830075F010A4CAABF075F04DA42BFBE435F067
:10039300FCEA2410FAEB34C5FBEC34D9FCEDC2E7DC
:1003A300FF75F056A4F42411C5F0F434C58FF0A4FE
:1003B3002AE5F03BE43CF020E71412056ED0E0FFA1
:1003C300D0E0FED0E0FDD0E0FC1201218014F40463
:1003D30012056ED0E0FFD0E0FED0E0FDD0E0FC12CD
:1003E3000438D082D083E0FAEDD2E7CD33EC332466
:1003F30082FBE4C3CF33CFCE33CECD33CD33DBF368
:100403007B0775F00A846004F0A31B0AE5F0F0A3F0
:100413008FF0740AA4FFACF08EF0740AA42CFEAC27
:10042300F050010C8DF0740AA42CFDE435F0F0A318
:05043300DBDE7407226E
:10043800EC4D6011E8497017ED33EC3304600DE4BE
:10044800FCFFFEFD22E933E8330470F80202E112F2
:1004580002AC58046009E4CC2481500628500902F3
:1004680002EB2840030202E8C0E0EB4A7044B9807E
:1004780006D0E0FB0202D7EF4E701CBD8008EBFFF0
:10048800EAFEE9FD80EBE98DF0A4FEE5F002052126
:10049800E9CDF9EAFEEBFFEF89F0A4FCE5F0CE899F
:1004A800F0A42EFFE435F0CD89F0A42DFEE435F05C
:1004B8008067EF4E7005BD80D780C3EF8BF0A4AC8A
:1004C800F0EE8BF0A42CFCE435F0F8EF8AF0A42CC5
:1004D800E5F038FCE433CB8DF0A42CFCE5F03BF8D8
:1004E800EE8AF0A42CFCE5F038F8E433CF89F0A4C8
:1004F8002CFCE5F038CF3400CE89F0A42FFFE5F0CE
:100508003EFEE433C98DF0A42EFEE5F039CD8AF025
:10051800A42FFFE5F03EFEE43DFD33D0E0FB50079D
:100528000BBB000F0202EBEC2CFCEF33FFEE33FEAB
:06053800ED33FD0202C3D9
:10053E003F8000004120000042C80000447A0000C5
:10054E00461C400047C35000497424004B18968047
:10055E004CBEBC205A0E1BCA6753C21C749DC5AE3E
:10056E00FB60065407601C232312059CEB54386075
:10057E0009120588120597120438ECF8EDF9EEFA17
:10058E00EFCB22EB12059780F1543803241C900513
:10059E003EFE93FC0EEE93FD0EEE930ECE93FF22D7
:101C6900021BBBE493A3F8E493A34003F68001F2BB
:101C790008DFF48029E493A3F85407240CC8C3337C
:101C8900C4540F4420C8834004F456800146F6DF4B
:101C9900E4800B0102040810204080901A65E47E5C
:101CA900019360BCA3FF543F30E509541FFEE49340
:101CB900A360010ECF54C025E060A840B8E493A307
:101CC900FAE493A3F8E493A3C8C582C8CAC583CA32
:101CD900F0A3C8C582C8CAC583CADFE9DEE780BEEA
:011B120000D2
:1005AE00BB010689828A83E0225002E722BBFE024B
:0905BE00E32289828A83E493227E
:1005C700BB010CE58229F582E5833AF583E02250E9
:1005D70006E92582F8E622BBFE06E92582F8E22233
:0D05E700E58229F582E5833AF583E493224D
:1005F400BB010689828A83F0225002F722BBFE01E6
:02060400F322DF
:10060600BC000BBE0029EF8DF084FFADF022E4CCD8
:10061600F875F008EF2FFFEE33FEEC33FCEE9DECA1
:10062600984005FCEE9DFE0FD5F0E9E4CEFD22EDE7
:10063600F8F5F0EE8420D21CFEADF075F008EF2F31
:10064600FFED33FD4007985006D5F0F222C398FD22
:050656000FD5F0EA22BF
:10065B00C5F0F8A3E028F0C5F0F8E582158270022A
:06066B001583E038F022C7
:10067100A3F8E0C5F025F0F0E5821582700215833C
:06068100E0C838F0E82299
:10068700BB010A89828A83F0E5F0A3F0225006F7BE
:0F06970009A7F01922BBFE06F3E5F009F31922BB
:1006A600E88FF0A4CC8BF0A42CFCE98EF0A42CFCF3
:1006B6008AF0EDA42CFCEA8EF0A4CDA8F08BF0A471
:1006C6002DCC3825F0FDE98FF0A42CCD35F0FCEBD0
:1006D6008EF0A4FEA9F0EB8FF0A4CFC5F02ECD3995
:0F06E600FEE43CFCEAA42DCE35F0FDE43CFC2202
:1006F50075F008758200EF2FFFEE33FECD33CDCCBC
:1007050033CCC58233C5829BED9AEC99E58298403E
:100715000CF582EE9BFEED9AFDEC99FC0FD5F0D61B
:10072500E4CEFBE4CDFAE4CCF9A88222B800C1B945
:100735000059BA002DEC8BF084CFCECDFCE5F0CB83
:10074500F97818EF2FFFEE33FEED33FDEC33FCEBBC
:1007550033FB10D703994004EB99FB0FD8E5E4F977
:10076500FA227818EF2FFFEE33FEED33FDEC33FC64
:10077500C933C910D7059BE99A4007EC9BFCE99A58
:10078500F90FD8E0E4C9FAE4CCFB2275F010EF2F9D
:10079500FFEE33FEED33FDCC33CCC833C810D7079D
:1007A5009BEC9AE899400AED9BFDEC9AFCE899F8D8
:0E07B5000FD5F0DAE4CDFBE4CCFAE4C8F9226B
:0E07C300C3E49FFFE49EFEE49DFDE49CFC2247
:0C07D100ECF0A3EDF0A3EEF0A3EFF0229B
:1007DD00A8828583F0D083D0821207F41207F41219
:1007ED0007F41207F4E473E493A3C583C5F0C5833E
:1007FD00C8C582C8F0A3C583C5F0C583C8C582C866
:01080D0022C8
:10080E00F8E0FBA3A3E0F925F0F0E5821582700273
:07081E001583E0FA38F02217
:09082500EBF0A3EAF0A3E9F022D4
:10082E00D083D082F8E4937012740193700DA3A359
:10083E0093F8740193F5828883E47374029368606D
:06084E00EFA3A3A380DF6D
:10085400D083D082F8E4937012740193700DA3A333
:1008640093F8740193F5828883E473740293B5F06A
:0D087400067403936860E9A3A3A3A380D8D2
:10088100EC8EF0A4CCC5F0CCCDF8EFA4CEC5F02D04
:10089100FDE43CFCE8A42EC8C5F03DFDE43CFCEFC2
:0D08A100A4FFE5F028FEE43DFDE43CFC2250
:00000001FF
